:020000040800F2
:10000000603600203D02000819290008432300083B
:1000100009270008B5090008CD2E000800000000DF
:10002000000000000000000000000000A501000822
:100030001F0B000800000000E90100083729000834
:10004000570200085702000857020008570200082C
:10005000570200085702000857020008570200081C
:10006000570200085702000857020008570200080C
:100070005702000857020008C50A0008D10A000804
:10008000DD0A0008E90A00085702000857020008C4
:1000900057020008570200085702000857020008DC
:1000A00057020008570200085702000857020008CC
:1000B0005702000857020008B52900085702000837
:1000C00057020008570200085702000857020008AC
:1000D00057020008B52E0008C12E0008570200087C
:1000E00057020008570200085702000800F002F803
:1000F00000F048F80AA090E8000C82448344AAF17A
:100100000107DA4501D100F03DF8AFF2090EBAE877
:100110000F0013F0010F18BFFB1A43F0010318473B
:10012000DC4C0000FC4C0000103A24BF78C878C1B9
:10013000FAD8520724BF30C830C144BF04680C60ED
:10014000704700000023002400250026103A28BF35
:1001500078C1FBD8520728BF30C148BF0B60704739
:10016000642900F0A180002070471FB500F060FBFB
:1001700004000020002104F04BFD401C60601FBD06
:1001800010B510BD00F02FFB1146FFF7EEFF02F097
:10019000AEFE00F05FFB03B4FFF7F2FF03BC00F01C
:1001A000A3FB0000224B19680868B0E8F00F80F349
:1001B0000988BFF36F8F4FF0000080F311884EF075
:1001C0000D0E70470000000006480068006880F3CC
:1001D000088862B661B6BFF34F8FBFF36F8F00DF41
:1001E00000BF00BF08ED00E0EFF30980BFF36F8FA1
:1001F0000F4B1A6820E9F00F106008B54FF050005F
:1002000080F31188BFF34F8FBFF36F8F03F052FE5F
:100210004FF0000080F31188BDE8084019680868B5
:10022000B0E8F00F80F30988BFF36F8F704700BF0D
:100230003C000020EFF3058070470000094880472C
:1002400009480047FEE7FEE7FEE7FEE7FEE7FEE7B8
:10025000FEE7FEE7FEE7FEE704480549054A064BD0
:1002600070470000B1290008ED0000086030002050
:100270006036002060320020603200200FB41CB5D0
:10028000084B06AA7B4469460090059800F0ABF93C
:1002900004460020694600F0B9F920461CBC5DF810
:1002A00014FB0000850300002DE9F0410646002400
:1002B00010687529314616A510D0AFF300800028CC
:1002C00002DA404213A507E031688A0701D512A57A
:1002D00002E0490704D511A5012401E0AFF3008035
:1002E00000210A2206F1240709E0B0FBF2FCB0FB72
:1002F000F2F302FB1C00303078541846491C0028E9
:10030000F3D123462A463046BDE8F04100F00CB94F
:10031000000000002D0000002B0000002000000065
:100320002DE9F0410F460546002028622846E9687D
:10033000884770B3252805D0D5E901219047286A60
:10034000401CF2E7E9682846002688476C280446E6
:100350000AD0682C08D04C2C35D06A2C31D0742CA3
:1003600031D07A2C2FD016E0E96806462846884717
:10037000B042044608D16C2E23D04FF48066284644
:10038000E9688847044606E06C2E03D04FF4807677
:1003900001E01EE04026E4B1A4F14100192802D892
:1003A000203446F400663A46214628462E60FFF780
:1003B000D7FE60B1012808D0FF1D27F007070837D6
:1003C000B4E78026DBE70026D9E73F1DAEE72046ED
:1003D000B2E7286ABDE8F08170B5064600F0A0F8E3
:1003E0000468054630460A22002100F014F92C600A
:1003F00070BD10B5431C02E010F8011B71B18107FC
:10040000FAD14FF0013202C88C1A8C4314EAC2119F
:10041000F9D0C01A0A0603D0C01E10BDC01A10BD04
:100420000A0401D0801E10BD0902FCD0401E10BD80
:10043000032A40F2308010F0030C00F0158011F810
:10044000013BBCF1020F624498BF11F801CB00F8E8
:10045000013B38BF11F8013BA2F1040298BF00F83C
:1004600001CB38BF00F8013B11F0030300F00B8112
:10047000083AC0F0088051F8043B083A51F804CB20
:10048000A0E80810F5E7121D5CBF51F8043B40F8E6
:10049000043BAFF30080D20724BF11F8013B11F8F1
:1004A00001CB48BF11F8012B24BF00F8013B00F835
:1004B00001CB48BF00F8012B704702F0FF0343EA6D
:1004C000032242EA024200F012B94FF0000200B5E6
:1004D000134694469646203922BFA0E80C50A0E867
:1004E0000C50B1F12001BFF4F7AF090728BFA0E815
:1004F0000C5048BF0CC05DF804EB890028BF40F8E1
:10050000042B08BF704748BF20F8022B11F0804F22
:1005100018BF00F8012B7047704770477047000004
:1005200000487047FC2F00202DE9F0470D46994602
:100530009246044600F124080168880604D5E06963
:1005400021F01001216000E00120A84201DD471BDD
:1005500000E00027A1697A1902EB0900081AA061DE
:100560002078C00602D42046AFF30080002608E0C1
:10057000D4E901211AF806009047206A401C761C35
:1005800020624E45F4DB2078C0060AD52046AFF342
:10059000008006E0D4E9012130209047206A401C09
:1005A0002062381EA7F10107F4DC07E0D4E901213D
:1005B00018F805009047206A401C2062281EA5F10B
:1005C0000105F3DC2046AFF300802078000602D559
:1005D0000220BDE8F0870120FBE7000001694A1C0A
:1005E00002610878704700B58FB0CDE90131002174
:1005F000059105497944CDE9031011466846FFF796
:100600008FFE0FB000BD0000E5FFFFFF0A6802F893
:10061000010B0A6070472DE9F04791460F4680466E
:100620000446002614F8015B2DB100F085F800683F
:10063000405DC007F6D12B2D02D02D2D18D0641EA1
:100640004A463946204600F07FF827B13968A14272
:1006500001D1C7F800804FF0020471050BD540426C
:10066000002803DDFFF75CFF0460A007BDE8F0870A
:1006700046F48066E4E70028F8DAFFF751FF0460EB
:100680006FF00040F2E710B5203AC0F00B80B1E8FF
:100690001850203AA0E81850B1E81850A0E81850B7
:1006A000BFF4F5AF5FEA027C24BFB1E81850A0E8C0
:1006B000185044BF18C918C0BDE810405FEA827CDA
:1006C00024BF51F8043B40F8043B08BF7047D207F1
:1006D00028BF31F8023B48BF11F8012B28BF20F892
:1006E000023B48BF00F8012B70474FF0000204297D
:1006F000C0F0128010F0030C3FF4E9AECCF1040C12
:10070000BCF1020F18BF00F8012BA8BF20F8022B84
:10071000A1EB0C01FFF7DBBE5FEAC17C24BF00F850
:10072000012B00F8012B48BF00F8012B7047000097
:1007300000487047FC2F002010B500F079F8001D2C
:1007400010BD00BFCD4400002DE9F05F8246154684
:100750008B4600270AF10104B9460078302801D001
:100760009DB113E014F8010B0127782803D0582815
:1007700001D045B10AE00DB1102D07D1002714F8C2
:10078000010B102502E0082500E00A250026B046EE
:100790000EE005FB080005FB06F101271FFA80F8B3
:1007A00001EB1046B6F5803F00D3B94614F8010BB3
:1007B000294600F041F80028EBDABBF1000F05D024
:1007C0000FB1641E00E05446CBF80040B9F1000FB1
:1007D00006D0FFF7A5FE02210160C81EBDE8F09F0C
:1007E00048EA0640FAE77546FFF7A2FFAE46050065
:1007F0006946534620F00700854618B020B5FFF73C
:100800002BFDBDE820404FF000064FF000074FF0F1
:1008100000084FF0000B21F00701AC46ACE8C0091E
:10082000ACE8C009ACE8C009ACE8C0098D46704727
:10083000004870471C3000203A2800D2303820F0A1
:100840002002412A01D3A2F13700884201D34FF0A0
:10085000FF30704710B50446AFF300802046BDE876
:100860001040FFF798BC00004FF0013C50F8042BFB
:1008700051F8043B9A4221D1A2EB0C03934313EAB3
:10088000CC1317D150F8042B51F8043B9A4215D1E0
:10089000A2EB0C03934313EACC130BD150F8042BB7
:1008A00051F8043B9A4209D1A2EB0C03934313EA9B
:1008B000CC13DBD04FF00000704700BFD01A01BA54
:1008C000B1FA81F101F0180122FA01F0CB40C1F137
:1008D0002001DBB2C0B2C01A2CFA01F3D11A914345
:1008E00011EAC311E6D1704701491820ABBEFEE7FB
:1008F000260002007047000092B0174D4FF0FF3401
:100900002346002210A9286802F044FB0028F7D1F2
:100910009DF84400E8B19DF84000062819D2DFE8B0
:1009200000F01803050709100CA10BE00FA109E066
:1009300012A107E0BDF9422013A16846FFF79EFC13
:1009400003E015A16846FFF799FC684602F024F918
:10095000D6E714A1F6E700002800002041434B3AF7
:1009600020464F52574152440D0A000041434B3A32
:1009700020524556455253450D0A000041434B3A1B
:100980002053544F500D0A0041434B3A20535045D9
:1009900045442025640D0A0041434B3A204C530D39
:1009A0000A00000041434B3A20554E4B4E4F574EE4
:1009B0000D0A0000FEE710B501004FF000001CD04A
:1009C0000A78002A19D06C2A01D04C2A04D14B781D
:1009D000732B13D0532B11D0A2F16103192B01D823
:1009E000203AD2B2462A1BD0522A1BD0532A07D013
:1009F000582A02D1032161F3070010BD0521FAE74F
:100A000011F8012F002AF8D00446042262F30704EB
:100A10000846FFF7E1FC0146204661F31F4010BD88
:100A20000121E8E70221E6E70EB5234E01254FF04C
:100A3000FF3700243B4600226946306802F0AAFADC
:100A40000028F7D19DF8000006281CD2DFE800F04E
:100A50001B03060D11198DF8045001E0022005E07A
:100A6000ADF806408DF8085013E003208DF804001F
:100A7000F6E704208DF80400BDF80200ADF806008A
:100A8000F0E70520F2E78DF80440ADF806408DF858
:100A900008400A4800231A4601A9006802F0D8FA63
:100AA0009DF800000028C5D0054800231A46694675
:100AB000006802F0CDFABDE72000002028000020E9
:100AC00024000020014800F0CBB8000014160020DC
:100AD000014800F0C5B80000D0150020014800F022
:100AE000BFB8000058160020014800F0B9B8000057
:100AF0009C16002030B590F840500124AC40C56BE6
:100B00006C60046863604368102B036803D09960CD
:100B10000068C26030BD9A600068C16030BD704737
:100B20003C21124800F024FF104E4FF40048104CB6
:100B3000104F114DC8F100093068406A01B2208899
:100B4000081A00B2404502DDA0F5803003E04845B8
:100B500001DA00F580302180F884286810B1012185
:100B600002F0AAFA0A2002F0D9F9E5E7B014002051
:100B7000040000201C0100201000002072B6FEE7D7
:100B800010B590F821100022022905D004218163BC
:100B900080F82020012010BD01680B6823F00E03AF
:100BA0000B6001680B6823F001030B6090F8403084
:100BB000C46B012101FA03F3636080F8211080F80F
:100BC0002020104610BD000010B590F82110002420
:100BD000022903D00421816301243DE001680A68F1
:100BE00022F00E020A6001680A6822F001020A601F
:100BF0001A4A0168914201D1012121E0174A1432B9
:100C0000914201D110211BE0144A2832914201D1B6
:100C1000891515E0114A3C32914201D189140FE047
:100C20000E4A5032914202D14FF4803108E00B4A13
:100C30006432914202D14FF4801101E04FF0807193
:100C4000064A083A5160012180F82110002180F8FD
:100C50002010416B01B18847204610BD08000240BA
:100C60002DE9F05FC16B0C6801680B68D0F840C0DB
:100C7000042202FA0CF2494DDFF824A1494E4A4FF2
:100C8000DFF828B1DFF828E122422CD05A072AD514
:100C90000A68920603D40A6822F004020A60016816
:100CA000A94201D1042219E0514501D1402215E0A9
:100CB000B14202D14FF4806210E0B94202D14FF448
:100CC00080420BE0594502D14FF4802206E0714585
:100CD00002D14FF4800201E04FF080622F490839C1
:100CE0004A60C16A3BE04FF0020808FA0CF818EAC3
:100CF000040F4FF000094FF0010235D05FEA83780E
:100D000032D50B689B0605D40B6823F00A030B60F1
:100D100080F821200168A94201D1022219E0514541
:100D200001D1202215E0B14202D14FF4007210E04F
:100D3000B94202D14FF400520BE0594502D14FF4B1
:100D4000003206E0714502D14FF4001201E04FF08D
:100D50000072124908394A6080F82090816A00299F
:100D60001AD0BDE8F05F0847082505FA0CF52542C2
:100D700012D01B0710D50B6823F00E030B6090F800
:100D80004010C36B02FA01F15960826380F82120A0
:100D900080F82090016BE2E7BDE8F09F0800024078
:100DA0001C00024030000240440002405800024053
:100DB0006C00024030B528B308C813491422194406
:100DC000B1FBF2F18900C1631049816302214177CF
:100DD0001A6843F6F0718A43D0E900142143D0E940
:100DE00002452C432143046921434469214384691A
:100DF00021431143196000214163012242770177A9
:100E0000084630BD012030BDF8FFFDBF00000240A4
:100E100070B5044690F82000002501280CD0012070
:100E200084F8200094F821600020012E06D084F878
:100E300020000225284670BD022070BD022684F8DD
:100E40002160A0632068066826F00106066020463F
:100E5000FFF750FEE06A00282068016802D041F0E8
:100E60000E0106E021F0040101602068016841F0F4
:100E70000A0101602068016841F001010160D9E7C1
:100E80002DE9F84FDFF8B8910024A9F1040B2346AF
:100E90000F2709F1040AABF1040EC9E00125A540B2
:100EA0002A40AA427DD1674ED1F804C0ACEB0608B7
:100EB000B44532D014DCBCF1030F3AD009DCBCF1EC
:100EC000000F2AD0BCF1010F1CD0BCF1020F31D1B0
:100ED0001DE0BCF1110F17D0BCF1120F2AD119E09F
:100EE000B8F5881F19D006DCB8F5803F15D0B8F5E5
:100EF000801F1FD111E0B8F5001F0ED0B8F5041FF8
:100F000018D10AE0CB6815E0CB681B1D12E0CB6856
:100F100008330FE0CB680C330CE08B682BB1012B4E
:100F20004FF0080303D0456104E0042302E00561AB
:100F300000E00023FF2A01D8064601E000F1040684
:100F40004FEA840501D9A5F12005D6F8008007FAFB
:100F500005FC28EA0C0803FA05F548EA0508C6F876
:100F600000804D68ED0062D5374DAE6946F0010650
:100F7000AE61AD6924F0030605F001050095334D1F
:100F800006EB050CDCF80850A607360F07FA06F842
:100F900025EA0805DFF8B880404503D14FF0000886
:100FA00017E044E0DFF8AC80404502D14FF0010883
:100FB0000FE0DFF8A480404502D14FF0020808E0BE
:100FC000DFF89880404502D14FF0030801E04FF070
:100FD000040808FA06F848EA0508CCF808804D68C5
:100FE000D9F80060ED024D4601D5164300E0964366
:100FF0002E604D68DAF80060AD02554601D5164303
:1010000000E096432E604D68DBF80060AD035D465E
:1010100001D5164300E096432E604D68DEF800606F
:10102000ED03754601D5164300E096432E60641C1F
:101030000D682A46E5407FF431AFBDE8F88F000027
:10104000080401400000111000100240000001409F
:1010500000080140000C0140001001400014014054
:10106000C26821EA02030A4043EA02410161704773
:101070000AB1016170470904FBE70000014880687C
:10108000704700002C00002002488168027811445B
:10109000816070472C000020074810B5016841F0BE
:1010A00010010160032000F0A7F80F2000F006F8FF
:1010B00000F050F8002010BD0020024030B5054679
:1010C0001F4887B0C16941F00401C161C06906A928
:1010D00000F00400009001A800F03EF90498B0B1BF
:1010E00000F05AF940001749174AB0FBF1F11748D0
:1010F000491E0260416040F2E7320021C0E903214D
:101100008160816100F060FB040003D015E000F015
:1011100043F9E8E70D4800F085FB04000DD11E20DF
:1011200000F03CF8102D07D2002229461E2000F0C6
:1011300043F80748056000E0012407B0204630BDB1
:101140000010024040420F0000080040E01600205E
:10115000300000200F4808B5816941F0010181612C
:10116000816901F001010091C16941F08051C161C3
:10117000C069002200F0805000900F21901E00F006
:101180001BF80548416821F0E06141F000714160C1
:1011900008BD00000010024000000140002809DBEB
:1011A00000F01F02012191404009800000F1E02081
:1011B000C0F8001170470000F0B40E4B1B680C46DD
:1011C000C3F30223C3F10705042D00D90425191D1B
:1011D000072901D2002300E0DB1E012606FA05F1F3
:1011E000491E214099409E40761E16403143F0BC76
:1011F00001F06DBE0CED00E0064900F00702086842
:101200004FF6FF03184040EA0220034A10430860EB
:10121000704700000CED00E00000FA057047000088
:101220002DE9F0470F46050061D0434E306800F0CD
:101230000700B84209D2306820F007003843306018
:10124000306800F00700B84251D128683B4C810754
:1012500012D5400703D5606840F4E06060602878EC
:10126000000703D5606840F4605060606068A9685A
:1012700020F0F000084360602878C00728D0686834
:10128000012810D02168022810D0890700292EDA01
:10129000616821F0030101436160FFF7EFFE8046C2
:1012A00041F288390DE021688903EFE78901EDE714
:1012B000FFF7E4FEA0EB0801494502D90320BDE891
:1012C000F0876068696800F00C00B0EB810FEFD127
:1012D000306800F00700B8420BD9306820F00700F2
:1012E00038433060306800F00700B84201D0012078
:1012F000E5E72878400705D56068E96820F4E060F4
:10130000084360602878000706D56068296920F4E2
:10131000605040EAC100606000F05EF86168084A11
:10132000C1F30311515CC8400649086006480068D3
:10133000FFF7C4FE0020C2E7002002400010024078
:101340006E4D0008380000203000002001490120C7
:10135000C8647047000042420F2202600C4A536882
:1013600003F003034360536803F0F00383605368A2
:1013700003F4E063C36052684FF4E06303EAD2020F
:1013800002610448006800F0070008607047000030
:1013900000100240002002400448054900684968E6
:1013A000044AC1F30221515CC84070473800002054
:1013B000001002407E4D0008044805490068496855
:1013C000044AC1F3C221515CC84070473800002074
:1013D000001002407E4D00080E4A51680E4801F090
:1013E0000C03042B11D0082B0FD10C48C1F38343FD
:1013F000C903C05C0AD55168084AC1F34041921E36
:10140000515C054A5043B0FBF1F070470449484332
:10141000704700000010024000127A005E4D000884
:1014200000093D0010B5044CA068000603D5FFF785
:10143000F5FE8020A07210BD001002402DE9F84F8B
:10144000040070D02078C04DC00749D06868C0F350
:101450008100012807D06868C0F38100022809D103
:101460006868C00306D52868800339D560680028FD
:10147000E7D035E06068B0F5803F0BD010B1B0F533
:10148000A02F11D0286820F480302860286820F42C
:10149000802002E0286840F480302860606890B1C5
:1014A000FFF7ECFD06460AE0286840F4802028603B
:1014B000F0E700BFFFF7E2FD801B642873D82868BF
:1014C0008003F7D50CE0FFF7D9FD064605E000BF25
:1014D000FFF7D4FD801B6428F0D828688003F7D478
:1014E00020789A4E80074FF001094FF0000839D557
:1014F000686810F00C0F07D06868C0F381000228FC
:1015000009D16868C00306D42868800714D520690B
:10151000012808D110E02069B0B1C6F80090FFF7AB
:10152000ADFD074605E00AE1FFF7A8FDC01B022854
:10153000C4D828688007F7D52868616920F0F800CA
:1015400040EAC10028600DE0C6F80080FFF796FD74
:10155000074604E0FFF792FDC01B022823D8286845
:101560008007F7D4207800072CD57948A169D9B134
:10157000C0F80090FFF782FD074604E0FFF77EFD0C
:10158000C01B02280FD8686A8007F7D571484FF44E
:10159000FA510068B0FBF1F0009000BF0098411EC6
:1015A0000091FAD20EE080E0C0F80080FFF766FDFF
:1015B000074604E0FFF762FDC01B022875D8686A81
:1015C0008007F7D42078400760D5E8690027C0007D
:1015D00008D4E86940F08050E861E869012700F02C
:1015E000805000905C480168C90513D401688346A7
:1015F00041F480710160FFF741FD824606E000BFC3
:10160000FFF73CFDA0EB0A0064284ED8DBF8000091
:10161000C005F5D5E06801280AD008B1052813D027
:10162000286A20F001002862286A20F0040002E005
:10163000286A40F001002862E06841F2883B98B1D6
:10164000FFF71CFD82460BE0286A40F00400286288
:10165000EEE700BFFFF712FDA0EB0A0159455AD88B
:10166000286A8007F6D50CE0FFF708FD824605E002
:10167000FFF704FDA0EB0A0159454CD8286A800702
:10168000F6D41FB1E86920F08050E861E06988B3C2
:101690006968C1F38101022944D00228C6F860803C
:1016A00004D0FFF7EBFC044638E034E0FFF7E6FC3B
:1016B000074604E0FFF7E2FCC01B02282BD828688D
:1016C0008001F7D4206AB0F5803F05D16868A16831
:1016D00020F4003008436860D4E9080108436968D1
:1016E00021F4741108436860C6F86090FFF7C6FCE7
:1016F000044606E025E000BFFFF7C0FC001B0228FF
:1017000009D828688001F7D51BE000BFFFF7B6FCB9
:10171000001B022802D90320BDE8F88F2868800149
:10172000F4D40EE00128F7D06868226A00F4803112
:10173000914204D1616A00F47010884201D0012006
:10174000EAE70020E8E70000001002400000424203
:10175000800442423800002000700040704770470B
:1017600070B590F83C20012A26D0012480F83C4036
:10177000022280F83D2003685A689D6822F07006B6
:101780000A6832435A600D4B02689A4208D0B2F19F
:10179000804F05D00A4B9A4202D00A4B9A4204D19C
:1017A000496825F080031943916080F83D4000218D
:1017B00080F83C10084670BD022070BD002C01402E
:1017C000000400400008004010B5040003D094F865
:1017D0003D0010B107E0012010BD002084F83C005E
:1017E000204600F01EF8022084F83D00211D2068EC
:1017F00001F0E6F8012084F8460084F83E0084F801
:101800003F0084F8400084F8410084F8420084F8E6
:10181000430084F8440084F8450084F83D0000202B
:1018200010BD704790F83D10012901D0012070478C
:10183000022180F83D100168CA6842F00102CA60C6
:1018400000680B49884208D0B0F1804F05D00949A3
:10185000884202D00849884204D1816801F007011A
:10186000062903D0016841F00101016000207047A2
:10187000002C014000040040000800402DE9F04128
:101880000D46040003D094F83D0018B108E0012093
:10189000BDE8F081002084F83C00204600F040F8CC
:1018A000022084F83D002068816844F207029143D9
:1018B0008160211D206801F083F822689068916999
:1018C000166A2B68AF69034340F20330814341EA53
:1018D0000721A868EF6908434FF6FC418843E9688F
:1018E00040EA0720014328692F6A000140EA0730D7
:1018F000084369686D6926F0220646EA0515294302
:1019000093602268906154F8460B0162012004F84C
:101910001F09E0752076E0762077A0750020B7E7F4
:1019200000B585B0002100910191029103910068FA
:10193000B0F1804F16D10C48C16941F00101C1617D
:10194000C16901F001010491816941F004018161E3
:101950008069694600F00400049003200090034869
:10196000FFF78EFA05B000BD0010024000080140EC
:1019700070B590F83E60044690F83F5090F84230C1
:1019800090F84320022021B104290ED0012E1BD152
:1019900014E0012E18D1012B16D184F83E0084F8F2
:1019A000420001220021206820E0012D0CD1012AF3
:1019B0000AD184F83F0084F8430014E0012D03D1DC
:1019C000012B01D1012A01D0012070BD84F83E0015
:1019D00084F83F0084F8420084F84300012200218B
:1019E000206801F029F801220421206801F024F880
:1019F0002068016841F001010160002070BD70475E
:101A00002DE9F04104460068C66805694FF00007FB
:101A1000A90713D5B10711D5F91E0161012020775F
:101A2000206880698007204602D0FFF7E8FF04E0C5
:101A300000F0A4F8204600F049F92777680716D58A
:101A4000700714D521686FF0040008610220207728
:101A50002068806910F4407F204602D0FFF7CFFF56
:101A600004E000F08BF8204600F030F927772807D3
:101A700015D5300713D521686FF0080008610420E0
:101A800020772068C0698007204602D0FFF7B7FFA3
:101A900004E000F073F8204600F018F92777E80614
:101AA00016D5F00614D521686FF0100008610820E3
:101AB00020772068C06910F4407F204602D0FFF7ED
:101AC0009EFF04E000F05AF8204600F0FFF8277768
:101AD000E80708D0F00706D021686FF00100086120
:101AE000204600F043F9280608D5300606D52168BF
:101AF0006FF0800008612046FFF730FE680608D5C9
:101B0000700606D521686FF040000861204600F09D
:101B100037F9A8060AD5B00608D521686FF020006D
:101B200008612046BDE8F041FFF719BEBDE8F0812D
:101B300000B585B0002100910191029103910068E8
:101B40000B49884211D10B48816941F00401816140
:101B50008069694600F00400049040200090022053
:101B6000019003900448FFF78BF905B000BD000019
:101B7000000400400010024000080140704770B5AA
:101B8000044690F83C0000260D4601280FD00120A5
:101B900084F83C006AB1042A1DD0082A2FD00C2AF0
:101BA0003FD00126002084F83C00304670BD022062
:101BB00070BD206800F04EFF2068816941F0080187
:101BC00081612068816921F0040181612068816957
:101BD0002A69114311E0206800F064FF20688169E0
:101BE00041F4006181612068816921F48061816133
:101BF000206881692A6941EA02218161D2E720686F
:101C000000F07CFF2068C16941F00801C1612068D3
:101C1000C16921F00401C1612068C1692A691143C9
:101C200011E0206800F096FF2068C16941F400616E
:101C3000C1612068C16921F48061C1612068C16906
:101C40002A6941EA0221C161ACE710B5040003D062
:101C500094F83D0010B107E0012010BD002084F889
:101C60003C00204600F01EF8022084F83D00211DB3
:101C7000206800F0A5FE012084F8460084F83E00AC
:101C800084F83F0084F8400084F8410084F8420062
:101C900084F8430084F8440084F8450084F83D004B
:101CA000002010BD08B500680649884208D10648E2
:101CB000C16941F00201C161C06900F002000090F9
:101CC00008BD000000040040001002407047000002
:101CD00010B50446022249B104290ED0082913D0B8
:101CE00094F84100012816D0012010BD94F83E0060
:101CF0000128F9D184F83E200FE094F83F00012834
:101D0000F2D184F83F2008E094F840000128EBD19C
:101D100084F8402001E084F841200122206800F08E
:101D20008BFE0F492068884203D1426C42F4004286
:101D300042642068884208D0B0F1804F05D009493C
:101D4000884202D00849884204D1816801F0070125
:101D5000062903D0016841F001010160002010BD97
:101D6000002C0140000400400008004000680349C6
:101D7000884201D1FFF788B9704700000008004091
:101D800070477047704710F8411F4078084370470C
:101D9000F8B5016804460868CA684B6910F00F0F6F
:101DA0004FF0000559D003F0010602F49077374355
:101DB00065D0C10705D0D10503D5616C41F00101A3
:101DC0006164410705D5D90703D0616C41F0020178
:101DD0006164810705D5D90703D0616C41F0040126
:101DE0006164010707D502F02001314303D0616C23
:101DF00041F008016164616C00293AD0800604D585
:101E0000900602D5204600F07BFF20684069616C97
:101E1000C0F38010090700D460B3204600F03BFFF8
:101E200020684069400621D52068143050E8001F22
:101E300021F0400140E80012002AF5D1E06BA8B182
:101E40006D494163E06BFEF7BFFE002811D0E06BE7
:101E5000416B01B0BDE8F040084783060FD59306FB
:101E60000DD52046BDE8F84000F04ABF2046FFF7F8
:101E700089FFF8BD2046FFF785FF6564F8BD266B36
:101E80002023012E7CD1C6067AD5D60678D50868DF
:101E90004868009048694FF00206400640D5E16B63
:101EA000086840680004000CE8D0A28D8242E5D9A1
:101EB000E085886920282DD020680C3050E8001F6C
:101EC00021F4807140E80012002AF5D12068143016
:101ED00050E8001F21F0010140E80012002AF5D16E
:101EE0002068143050E8001F21F0400140E8001243
:101EF000002AF5D184F84230256320680C3050E880
:101F0000001F21F0100140E80012002AF5D1E06B1B
:101F1000FEF736FE6663A08DE18D401A81B22AE09D
:101F2000A08DE18D401A81B2E08D0028A6D0002955
:101F3000A4D022680C3252E8000F20F4907042E8DE
:101F40000007002FF5D12068143050E8002F22F050
:101F5000010240E80027002FF5D184F842302563C4
:101F600020680C3050E8002F22F0100240E80023D7
:101F7000002BF5D166632046FFF703FFF8BDFFE7AE
:101F800005062BD5150629D594F841002128F5D151
:101F9000A068B0F5805F01D12069B0B1206A411C12
:101FA0002162216800784860E08C401E0004000C2B
:101FB000E084E3D12068C16821F08001C16020681D
:101FC000C16841F04001C160D8E7206A0088C0F3D1
:101FD00008004860206A801C2062E5E74006CDD5F5
:101FE0005006CBD5CA68204622F04002CA6084F869
:101FF000413000F099F9C1E7F12B000870B50400F9
:1020000004D094F84100002510B106E0012070BD15
:1020100084F84050204600F023F8242084F8410042
:102020002068C16821F40051C160204600F0CAFE5A
:102030002068016921F4904101612068416921F023
:102040002A0141612068C16841F40051C1606564A2
:10205000202084F8410084F842006563002070BDB0
:102060002DE9F04385B00025009501950295039573
:102070000446DFF868C10368594802210322594F1A
:1020800080264FF0100963454ED1836943F48043A5
:102090008361836903F480430493836943F00403F9
:1020A00083618069039200F0040004900802CDE986
:1020B000000169463846FEF7E3FEF000CDE9000571
:1020C000694638460295FEF7DBFE484F46484FF416
:1020D0000058C7E90005C7E902563D617D61C7E9BF
:1020E00006583846FEF766FE08B1FEF747FDE7637F
:1020F0007C623E4F3C4844371438C7E902563D6184
:102100007D61C7E90009C7E906583846FEF752FE67
:1021100008B1FEF733FDA7630022052125207C626C
:10212000FFF74AF8252053E0DFF8C4C0634551D1DA
:10213000C36943F40033C361C36903F400330493F8
:10214000836943F0040383618069039200F0040013
:1021500004900420CDE9000169463846FEF790FE60
:102160000820CDE90005694638460295FEF788FE4D
:102170001E4F1D4888371430C7E90005C7E90256CD
:102180003D614FF480587D61C7E906583846FEF737
:1021900011FE08B1FEF7F2FCE7637C62134F1248B0
:1021A000CC372830C7E902563D617D61C7E9000997
:1021B000C7E906583846FEF7FDFD08B1FEF7DEFC1C
:1021C000A7630022052126207C62FEF7F5FF26206A
:1021D000FEF7E4FF05B0BDE8F083000000380140E1
:1021E000001002400008014058000240D0150020B5
:1021F0000044004090F84230202B01D0022070476C
:1022000021B11AB10023036300F038BE01207047EA
:1022100038B500681449884225D1144C144A002569
:1022200061780D2908D00A2906D060881F2811D2AC
:102230001154401C60800EE0608858B115540C4861
:10224000FEF7B9FB00900B4800231A466946006868
:1022500000F0FEFE6580BDE8384004490122491CBB
:102260000548FFF7C7BF38BD00440040000000200C
:10227000BC000020200000208815002070B5044616
:1022800090F84100202801D0022070BD49B342B32C
:102290002162A284E28400206064212384F841301A
:1022A000A56B114BAB62A56B104BEB62A56B104B92
:1022B0002B63A36B5863256813462A1DA06BFEF79A
:1022C000A7FD21686FF0400008602068143050E8D6
:1022D000001F41F0800140E80012002AF5D10020E3
:1022E00070BD012070BD00004B2C00088D2C000833
:1022F000012C000890F84130202B01D002207047BB
:1023000079B172B101628284C284002141642121C9
:1023100080F841100068C16841F08001C160002070
:10232000704701207047000000680349884202D1CD
:10233000024900200870704700440040000000205F
:102340007047FEE7054D4FF4005421462846FEF73E
:1023500087FEC82000F0E2FDF7E700000010014012
:102360000EB500F03BFC184C184F4FF0FF384246BA
:102370000021012000F0DAFE3868B4F92660456AD1
:10238000FEF77CFE0246B4F92810B4F92A0049424F
:102390000096CDE901102B460DA11348FDF76EFF05
:1023A00005461248FFF7EFFC202806D0052000F074
:1023B000B5FD0A2000F0B2FDD9E7AAB20A490B48E0
:1023C000FFF75CFFF5E700001C010020B0140020BF
:1023D000256C642C256C642C256C642C256C642C79
:1023E000256C640D0A000000480100204015002003
:1023F000154808B5416941F0010141614069002279
:1024000000F00100009005210E20FEF7D5FE0E2001
:10241000FEF7C4FE002205210F20FEF7CDFE0F209F
:10242000FEF7BCFE002205211020FEF7C5FE10209D
:10243000FEF7B4FE002205211120FEF7BDFEBDE827
:1024400008401120FEF7AABE0010024010B5204A35
:102450000821402000F0D0FD1E4C1D4A0821A0613B
:102460001832482000F0C8FD194AE06130320821D6
:10247000402000F0C1FD164A2062D83A00211648DB
:1024800000F0A0FE124A2060B43A0021134800F088
:1024900099FE0F4A6060903A0021114800F092FEC8
:1024A0000B4AA0606C3A00210E4800F08BFE084AEF
:1024B000E060483A00210C4800F084FE044A2061A4
:1024C000243A0021094800F07DFE606110BD000043
:1024D000144D0008080000203329000827290008AF
:1024E0002F290008232900082B2900081F2900088C
:1024F0002DE9F04385B000242C4800940194029407
:102500000394816941F010018161816901F010013A
:102510000491816941F020018161816901F020010C
:102520000491816941F004018161816901F0040134
:102530000491816941F0080181618069012200F004
:1025400008001B4F5503049029463846FEF790FDBE
:10255000DFF86080012280214046FEF789FDDFF828
:102560005890012203214846FEF782FD009502267D
:1025700001250396CDE9015469463846FEF780FCF3
:102580008020CDE90005CDE9024669464046FEF7C8
:1025900077FC0320CDE90005CDE9024669464846AF
:1025A000FEF76EFC05B0BDE8F083000000100240AD
:1025B0000010014000080140000C014010B58CB033
:1025C00024216846FDF781FF0024164809944FF046
:1025D00080410A94C0E900144FF6FF71C0E902413E
:1025E000046184610320CDE900040120CDE90204E7
:1025F00007210491CDE90540CDE907416946094825
:10260000FFF73CF908B1FEF7B9FA099409A90548A2
:102610000A94FFF7A5F8002801D0FEF7AFFA0CB036
:1026200010BD0000B014002010B58AB0002407943B
:102630001C2168460894FDF748FF164814490160BC
:102640004721C0E901146321C0E903148461FFF745
:10265000FCFA08B1FEF792FA079407A90D4808940E
:10266000FFF77EF808B1FEF789FA6020CDE9000493
:1026700002940022694607480494FFF780FA08B1E3
:10268000FEF77CFA0348FFF753FA0AB010BD0000CA
:1026900000040040F81400200C4810B50A490160FD
:1026A0004FF4E1314160002181600C22C160C0E93A
:1026B00004128161C161FFF7A1FC002803D0BDE8CD
:1026C0001040FEF75BBA10BD0038014040150020F5
:1026D0000C4810B50A4901604FF4E1314160002116
:1026E00081600C22C160C0E904128161C161FFF701
:1026F00085FC002803D0BDE81040FEF73FBA10BDAE
:102700000044004088150020FEE700008CB04FF424
:102710007A710A2301200022CDE90613CDE90820B1
:1027200005918022194BCDE903320224184B8DE824
:10273000190000221749184800F032F8174EE41E1D
:102740006FF04F05234600220AA9306800F022FCF2
:10275000B8B99DF82800012806D0022806D0032821
:1027600006D004280DD107E0502107E0294605E0F6
:10277000094800F0A6F804E0BDF92A10064800F068
:1027800043F80A2000F0CAFBDCE700000008014023
:10279000000C0140F81400201C010020240000203F
:1027A0002DE9F05F04460AA890E8E05F084611466C
:1027B00084E80B00A5812661A782C4F81880A4F8DC
:1027C0001C90A4F81EA0A4F820B0A4F822C05FEAD0
:1027D0000E0200D0012284F82420139A012A00D08E
:1027E000002284F825200022E28422856285FFF7FA
:1027F0006FFAA069002805D0A18BBDE8F05F012227
:10280000FEF736BCBDE8F09F70B50446B0F9200075
:102810000D46A84200DA05464142A94200DD0DB24C
:1028200094F8241009B169420DB2002D04DD618CC9
:10283000A94208DDB4F92250002D04DA618C494226
:10284000A94200DA0DB2002648B1002D01DB29466D
:1028500000E06942E28B514391FBF0F086B2002D1B
:102860000FDDA1894FF00102A068FEF701FCA18AEB
:10287000002220690EE008282068006818D006644D
:102880001CE017DAA1890022A068FEF7F1FBA18AFB
:1028900001222069FEF7ECFB606828B10428EAD128
:1028A00020680068866309E020680068466305E0E8
:1028B000C66303E0204600F004F8002625856685FF
:1028C00070BD70B504460025D4E900010068B1B1BF
:1028D000042916D0082916D0056494F82500A1898A
:1028E0000028A06811D00122FEF7C2FBA18A0122B4
:1028F0002069FEF7BDFBE5842585658570BD4563D0
:10290000EBE78563E9E7C563E7E70022FEF7B0FB85
:10291000A18A00222069ECE7FEF784FDFEE7FDF7BF
:10292000EBBFFEF781B8FEF7FBB8FFF70BBDFFF773
:1029300017BDFFF7EBBE10B54FF0E020006901F0C6
:102940006BFF012803D0BDE8104001F039BB10BD7A
:1029500030B58FB028216846FDF7B7FD14210AA8CD
:10296000FDF7B3FD01210804CDE900100024029415
:1029700002250491CDE907504FF4E0100990684614
:10298000FEF75CFD08B172B6FEE70F20CDE90A053F
:102990004FF48060CDE90C4002210AA80E94FEF7A6
:1029A0003FFC08B172B6FEE7FEF7D0FC0FB030BDB9
:1029B000704700000148FFF723B80000E016002030
:1029C000F0B50268194B1A4C1A4D4FF080479842E7
:1029D00005D0B84203D0A04201D0A84203D122F0D2
:1029E00070064A683243984205D0B84203D0A042EC
:1029F00001D0A84203D122F44074CA6822434C6932
:102A000022F08002224302608A68C2620A688262FF
:102A1000984201D109690163012141610169C90736
:102A200003D0016921F001010161F0BD002C0140DA
:102A3000000400400008004010B501F01F03012110
:102A4000046A99408C430462016A9A40114301620E
:102A500010BD000030B5036A026A22F00102026272
:102A60004268846924F073050C682C4323F0020546
:102A70008B682B430A4DA8420BD123F00805CB6885
:102A800022F440722B434D6923F0040315438A69F5
:102A90002A434260846149684163036230BD00009B
:102AA000002C014030B5026A036A23F01003036270
:102AB000436884690D6824F4E64444EA05248D687B
:102AC00022F0200242EA05120B4DA8420ED1CD6839
:102AD00022F0800242EA05124D6923F4406343EA82
:102AE00085038D6922F0400243EA850343608461D7
:102AF00049688163026230BD002C014030B5036A31
:102B0000026A22F4807202624268C46923F400738C
:102B100024F073050C682C438D6843EA05230C4DA3
:102B2000A8420ED1CD6823F4006343EA05234D6922
:102B300022F4405242EA05128D6923F4806342EA8E
:102B400005124260C4614968C163036230BD000080
:102B5000002C014030B5046A026A22F480520262FD
:102B60004268C3690D6823F4E64343EA05238D6890
:102B700024F4005444EA0534064DA84204D14D69BA
:102B800022F4804242EA85124260C36149680164CE
:102B9000046230BD002C014070B50D4D064628780A
:102BA000002814D13046FDF724FC84B2402C00D319
:102BB0003F24224631460748FDF73AFC01202870A1
:102BC0002246BDE8704003490348FFF793BB70BD40
:102BD00000000020DC0000208815002001220249AE
:102BE0000248FFF707BB0000010000208815002005
:102BF00010B5406A0021C185C184FFF7C3F810BD3C
:102C000070B5446A2068406994F84110C0F3C01060
:102C10000025212904D118B1E584204600F062F88E
:102C20002068406994F84210C0F38010222904D132
:102C300018B1E585204600F02EF8606C40F01000D9
:102C400060642046FFF79EF870BD10B50146406AEB
:102C500009680968890616D40021C1840168143105
:102C600051E8002F22F0800241E80023002BF5D12B
:102C700001680C3151E8002F42F0400241E8002386
:102C8000002BF5D110BDFFF74FFB10BD10B5406A0A
:102C9000FFF756FB10BD01680C3151E8002F22F4FC
:102CA000907241E80023002BF5D10168143151E8FE
:102CB000002F22F0010241E80023002BF5D1016B27
:102CC000012909D101680C3151E8002F22F01002CE
:102CD00041E80023002BF5D1202180F8421000218B
:102CE0000163704701680C3151E8002F22F0C002E7
:102CF00041E80023002BF5D1202180F841107047D6
:102D000008B590F84210222901D0022008BD82683F
:102D10004FF480539A4201D1016921B1816A9A42EC
:102D20001BD04AB10AE00268816A5268C2F3080205
:102D30000A80816A891C08E0026972B102685268DF
:102D400002F07F020A70816A491C8162C18D491EAE
:102D50000904090CC18503D01BE002685268F1E741
:102D60000168CA6822F02002CA600168CA6822F4B9
:102D70008072CA6001684A6922F001024A6120211A
:102D800080F8421000214163026B012A03D0FFF753
:102D90003FFA002008BD016301680C3151E8002FA3
:102DA00022F0100241E80023002BF5D101680A68E7
:102DB000D20602D50A6849680091818DFEF7E1FFCD
:102DC000E7E7000070B5044600680169E26821F495
:102DD0004051114301612169A068084361690843BA
:102DE0002168CA6841F20C639A430243CA602068B2
:102DF0004169A26921F44071114341611E49206873
:102E0000884202D1FEF7D8FA01E0FEF7C5FA00EBDE
:102E1000C00101EB0012606864218000B2FBF0F396
:102E2000B3FBF1F36FF018067343B2FBF0F5B2FB9E
:102E3000F0F605EB8305322303EB0515B5FBF1F541
:102E4000B6FBF1F605F0F00505EB0615B2FBF0F662
:102E5000B2FBF0F0B0FBF1F06FF01802504306EB5C
:102E6000800003EB0010B0FBF1F0216800F00F00D0
:102E70002844886070BD000000380140816282856E
:102E8000C28500214164222180F84210016921B1EC
:102E90000168CA6842F48072CA6001684A6942F0F7
:102EA00001024A610068C16841F02001C160002050
:102EB000704700000148FEF76BBF0000401500207E
:102EC0000148FEF765BF000088150020FEE70907EE
:102ED000090E002804DB00F1E02080F800147047A0
:102EE00000F00F0000F1E02080F8141D7047FEF79D
:102EF000D3F8FFF72DFDFFF7FBFAFFF779FAFFF79D
:102F00005DFBFFF791FBFFF7C7FBFFF7E1FB00F06D
:102F100013F8FFF79BFA00F021F8FEE710B5EFF386
:102F2000058111B16FF0050403E0002408B100F041
:102F30000DFF204610BD0000EFF3058010B16FF0CB
:102F4000050070470448016811B14FF0FF30704729
:102F500001210160002070478C00002010B5EFF3C4
:102F6000058010B16FF0050010BD08480168012907
:102F700002D04FF0FF3010BD054A002182F8141D29
:102F80000221016000F04AFF002010BD8C000020EB
:102F90000BE000E0F8B51D466FF003026FF002068B
:102FA0004FF00004EFF30583A3B1F0B1E9B1E5B947
:102FB000002200926A4601F05DFA012817D10098BC
:102FC000B0B10C494FF080500860BFF34F8FBFF392
:102FD0006F8F0DE048B141B12A4601F0AFF90128E9
:102FE00006D025B16FF0010402E0144600E034463B
:102FF0002046F8BD04ED00E0F8B514464FF000059A
:10300000EFF3058212BB08B301B3A4B1D4E90232D5
:1030100063B1502A1AD32269C2B1676900FB01F675
:10302000B74213D3009501F002F807E072B92269A4
:1030300062B9626952B9002200F0D8FF050005D0DC
:103040000CB1216800E0002100F04AFE2846F8BDDE
:10305000F8B51D466FF003026FF002064FF0000452
:10306000EFF30583ABB100B3F9B1F5B90022134614
:1030700000926A4601F002F9012818D10098B8B10F
:103080000C494FF080500860BFF34F8FBFF36F8F34
:103090000EE050B149B100232A4601F03FF8012863
:1030A00006D025B16FF0010402E0144600E034467A
:1030B0002046F8BD04ED00E03EB5040001D0002933
:1030C00003DA6FF0030001902BE04FF0FF30019026
:1030D000EFF30580D0B1002502A800902B46012215
:1030E0000295204601F016FB002201AB1146204656
:1030F000009501F00FFB029898B10B494FF08050FA
:103100000860BFF34F8FBFF36F8F0AE000230122E7
:10311000204601F08FFA002201AB1146204601F053
:1031200089FA01983EBD000004ED00E02DE9F84F5A
:10313000894605464FEA0206EFF3058010B16FF0AD
:1031400005041EE0002D02DA6FF0030419E05FEAC7
:10315000897002D54FF0000800E0A846002492468E
:1031600001F068FB8346E71E53466A46414600204D
:1031700001F0CAFB012807D00EB36FF0010400284C
:10318000F2D12046BDE8F88F00982C4004435FEA56
:10319000C9700BD035EA0400F3D056B101F04AFBF8
:1031A000A0EB0B00504506D9002006E02542E8D1EF
:1031B000F3E73C46E5E7AAEB00008246D4E73C464D
:1031C000DDE700002DE9FF414FEA01034FF0000564
:1031D000EFF30581039549BB40B3802718210024F4
:1031E0004AB3166806B1344696691EB13146761E5A
:1031F000382E02D21679F60703D0002004B0BDE8BD
:10320000F081566906B1B708D2F808C0BCF1000FCA
:103210000DD0D5685C2D18D312693AB136B18DE85E
:1032200006103A46214601F0DAF903900DE0D6681F
:103230005EB912694AB903AACDE90012BAB22146B1
:1032400001F0A0F9012800D003950398D6E700000B
:103250002DE9F041134C0F460546E6682068001D35
:1032600000F040FC681C07D137B12168BDE8F0418F
:103270000D48091D00F086BC20683544B542456004
:10328000216805D2A06BBDE8F041091D00F062BCC9
:10329000606B091D00F05EFCA06A854200D2A56249
:1032A000BDE8F0813C000020181C00202DE9F04111
:1032B000054600F073FC2D4CA068401CA0602068FF
:1032C0002B4F10B1606930B32BE02560A068012856
:1032D00027D1002606EB860007EB800000F02CFCCF
:1032E000761C382EF6D3234800F026FC21481430F3
:1032F00000F022FC1F48283000F01EFC1D483C3026
:1033000000F01AFC1B48503000F016FC19486063AE
:103310001430A06305E02068E96AC06A884200D8DA
:103320002560606A401C60626864E86A21698842BE
:1033300000D9206100EB800007EB8000291D00F020
:1033400021FC00F04BFC606900280CD02068E96A81
:10335000C06A884207D208494FF080500860BFF326
:103360004F8FBFF36F8FBDE8F08100003C0000205D
:1033700068170020C81B002004ED00E038B500F0FD
:103380000DFC104C2068C8B90F4800F0D5FB0E4862
:10339000143000F0D1FB0C48E060143020610A4B7F
:1033A0000020F03B009003F1500210210A2000F0B1
:1033B0003EFE206010B105A100F092FCBDE838404F
:1033C00000F00CBC780000201C1D0020546D7251D0
:1033D0000000000030B4026C0B46002A0BD0C1681C
:1033E0001144C1608468A14201D30168C16030BC4E
:1033F0001846FDF71DB830BC70472DE9F041856BCC
:10340000174604460026026C82B1C7B1E068FDF79A
:103410000FF8E168206C091AE1602268914202D23B
:10342000A168081AE060022F16D017E02068A8B93A
:10343000A06801F0AFFA06460020A0600EE06068C8
:10344000FCF7F6FF216C606808446060A168884260
:1034500004D32068606001E005B16D1E6D1CA5639A
:103460003046BDE8F08110B5044690F8590058B1D7
:1034700001280CD002280FD0502080F31188BFF310
:103480004F8FBFF36F8FFEE7206B00F0BBFB204632
:10349000BDE8104000F0B6BB10BD000010484FF46E
:1034A0004061420706D0C01D0D4920F00700411AB7
:1034B000C1F540610B4A00230144C2E90003083909
:1034C000183A21F0070111604B600B600B1AC0E93C
:1034D000001393604FF0004053605061704700004C
:1034E000FC230020A8000020144E154CA6F29C4797
:1034F0004FF08058DFF84C9012E000BF00F04EFB18
:10350000F068C568281D00F0EDFAA068401EA060B4
:103510006068401E606000F061FB2846FFF7A3FF73
:1035200060680028EAD138680128F9D9C9F8008014
:10353000BFF34F8FBFF36F8FF2E70000041C002032
:103540003C00002004ED00E070B51D46049C51B124
:10355000C4F80020C4E90F010121204600F09AFDC3
:1035600084F84C5070BD2460F4E700002DE9F05F52
:103570008846DDE90B941546834691009A460A9EDB
:10358000A522206BFCF799FF6FF00301206B01EB84
:103590008501084420F00707780707D0502080F302
:1035A0001188BFF34F8FBFF36F8FFEE70025B8F18F
:1035B000000F0FD05FF00000221818F8001082F8FA
:1035C000341018F8001011B1401C1028F4D384F8FE
:1035D000435001E084F83450382E00D33726E66299
:1035E000C4E91365201D00F0B2FA04F1180000F0E0
:1035F000AEFA2461C6F138006462A061656584F8A2
:10360000585052465946384600F05AFA2060B9F1EF
:10361000000F01D0C9F80040BDE8F09F30B5114956
:1036200000E011460A688242FBD34B685C18844272
:1036300003D1406818444860084643681C18944207
:1036400009D1084C183C2468A24209D052681A4497
:1036500042600A6812680260814200D0086030BD92
:103660000460F9E7A800002070B5002441600B4D0C
:103670000061914206D8D11A8269914206D2011D99
:10368000286907E09A4203D2994201D3012403E05A
:10369000011DE86800F05EFA204670BD7800002049
:1036A00010B5044600F07AFAA06B28B15FF0000470
:1036B00000F094FA204610BD0124F9E730B589B036
:1036C0003C4D6EE00498002806DADDE90601059A13
:1036D00090470498002864DB069C606910B1201DA7
:1036E00000F000FA03A800F0D7F8024604980A2870
:1036F00057D2DFE800F00505052D334A05052D33C7
:1037000094F8280040F0010084F828000599A06989
:10371000059B01442046FFF7A7FF68B3216A2046B6
:10372000884794F8280040073BD500200090059872
:10373000A169002342181946204601F035FAD8B98C
:10374000502080F31188BFF34F8FBFF36F8FFEE7D8
:1037500014F8280F20F00100207022E094F82800CF
:1037600040F0010084F828000598A06128B1811874
:1037700013462046FFF778FF13E0502080F31188AE
:10378000BFF34F8FBFF36F8FFEE794F828008107D8
:1037900003D4204600F036FA03E020F0010084F85C
:1037A0002800002204A9286800F0C8FD002889D15B
:1037B00009B030BD780000202DE9FC410F460546D8
:1037C00000F070FB01A800F067F80446019818B1FA
:1037D00001F058F9BDE8FC81254EAFB130690068B1
:1037E000D0B30027291B3A46306800F08DFA01F06B
:1037F00049F90028EED11F494FF080500860BFF30F
:103800004F8FBFF36F8FE5E7A542EBD801F03AF990
:10381000F0682746C068C468201D00F063F994F87A
:103820002800410719D5A0692B4641193A46204680
:10383000FFF71AFFA8B100200346014600902A4670
:10384000204601F0B1F960B9502080F31188BFF330
:103850004F8FBFF36F8FFEE707E020F0010084F881
:103860002800216A20468847B4E70127BAE700000C
:103870007800002004ED00E00648416B096829B19A
:10388000416BC968C9684968816270474FF0FF3170
:10389000FAE700003C00002070B5054600F0CAFFC2
:1038A000064E0446B068844203D200F009F80120B5
:1038B00000E0002028602046B46070BD7800002041
:1038C000F8B5194D20E0C068C4680668201D00F0F6
:1038D00009F9216A2046884794F82800400713D543
:1038E000A0693044B04206D924616060211DE868B7
:1038F00000F030F908E0002003460146009032460F
:10390000204601F051F938B1E86801680029DAD1A0
:103910002969C5E90310F8BD502080F31188BFF371
:103920004F8FBFF36F8FFEE7780000200848406894
:10393000401C4FF0500080F3118804D0BFF34F8F2C
:10394000BFF36F8FFEE7BFF34F8FBFF36F8FFEE7BD
:10395000B0000020074CE068016841B1C068002158
:10396000D0F80000FFF728FFFFF7A8FEF3E70121DA
:103970000020F7E7780000202DE9F041044600F030
:103980000DF994F9455004F1240609E0606A48B144
:10399000304601F03FF808B100F006FA6D1E6DB236
:1039A000002DF3DC4FF0FF3684F8456000F016F987
:1039B00000F0F4F894F9445004F1100709E020698C
:1039C00048B1384601F026F808B100F0EDF96D1E57
:1039D0006DB2002DF3DC84F84460BDE8F04100F0E6
:1039E000FDB800002DE9F0410546002700F05AFA25
:1039F000324E306808B9FFF751FD706905424ED16B
:103A0000C5B3083568070ED005F00700C0F10800FF
:103A10000544680707D0502080F31188BFF34F8F0B
:103A2000BFF36F8FFEE72DB37068854237D8234808
:103A3000183001460C6801E020460C466168A94236
:103A400002D221680029F7D131688C4227D007685B
:103A50002168016060680837411B10290FD960197F
:103A6000420708D0502080F31188BFF34F8FBFF377
:103A70006F8FFEE713E041606560FFF7CFFD61687F
:103A80007068401A7060B268904200D2B06070698D
:103A900001430020C4E90001F068401CF06000F020
:103AA000F1FF780707D0502080F31188BFF34F8FC4
:103AB000BFF36F8FFEE73846BDE8F081900000202D
:103AC00010B5031F4FF080741C601B1F21F0010113
:103AD0001960191F024B0B60143940380A6010BD81
:103AE0002D390008D0E9013201699A60D0E901233B
:103AF0005A604A68824201D182684A6000220261AB
:103B00000868401E0860086870470000034B0360A7
:103B100003F15C000860802010607047441D0020A5
:103B2000044B036003F15C0008604FF48070106088
:103B300070470000A01F002000F108014FF0FF3285
:103B4000C0E90112C16001610021016070470021DC
:103B50000161704730B50B685A1C02D000F10802B1
:103B600002E0026904E02246546825689D42FAD9C1
:103B700053684B6099608A60516008610168491C14
:103B8000016030BD42684A6093688B6093685960F9
:103B9000916008610168491C01607047502080F302
:103BA0001188BFF34F8FBFF36F8F0A494868401CDD
:103BB000486001280CD10848006810F0FF0F07D0BA
:103BC000502080F31188BFF34F8FBFF36F8FFEE754
:103BD00070470000B000002004ED00E0084948688C
:103BE00028B1401E486001D180F3118870475020F1
:103BF00080F31188BFF34F8FBFF36F8FFEE7000094
:103C0000B000002070B500282AD0164DA0F108049D
:103C100060686969084207D1502080F31188BFF3BA
:103C20004F8FBFF36F8FFEE722683AB1502080F3C9
:103C30001188BFF34F8FBFF36F8FFEE7884360603B
:103C400000F030F960686968084468602046FFF752
:103C5000E5FC2869401C2861BDE8704000F012BFF7
:103C600070BD0000900000204FF0E02000210161B5
:103C7000816105494FF47A720968B1FBF2F1491E7E
:103C800041610721016170473800002010B5FCF741
:103C9000D1FA114910280ED300F1E02090F8F0037A
:103CA0000A78904207D2502080F31188BFF34F8FDB
:103CB000BFF36F8FFEE709480068896800F4E06091
:103CC000884207D9502080F31188BFF34F8FBFF38C
:103CD0006F8FFEE710BD0000B00000200CED00E08B
:103CE00010B5084B002200BF53F832401CB1521CE3
:103CF000082AF9D310BD43F8321003EBC201486023
:103D000010BD00002817002070B515460E46044669
:103D1000FFF744FF94F944100020491C01D184F8B6
:103D2000440094F94510491C01D184F84500FFF77F
:103D300055FFA06B28B92A46314604F1240000F053
:103D400051F82046BDE87040FFF716BE10B50200DE
:103D500014D00F48006B38B1502080F31188BFF3A6
:103D60004F8FBFF36F8FFEE700F09CF800211046E5
:103D7000FFF76EFA00F086FE002807D105494FF0E4
:103D800080500860BFF34F8FBFF36F8F10BD0000EE
:103D90003C00002004ED00E002490A6A0260C968A4
:103DA000416070473C00002001490120C861704714
:103DB0003C00002010B50C4650B109490968183183
:103DC000FFF7C8FE2046BDE810400121FFF740BACA
:103DD000502080F31188BFF34F8FBFF36F8FFEE742
:103DE0003C00002070B514460D4668B10A490968C8
:103DF0001831FFF7C7FE0CB14FF0FF3521462846BA
:103E0000BDE87040FFF724BA502080F31188BFF35B
:103E10004F8FBFF36F8FFEE73C00002030B587B0B7
:103E20000024039405AA04A903A80494FFF76EFED6
:103E3000DDE903010094CDE90110002315A1174825
:103E4000059A00F0CCFB164D0028E8621FD000F068
:103E50007BFE012809D0401C19D1502080F3118825
:103E6000BFF34F8FBFF36F8FFEE7502080F31188B1
:103E7000BFF34F8FBFF36F8F4FF0FF30A862012069
:103E80006861EC6007B0BDE8304000F045B807B0AD
:103E900030BD000049444C4500000000E9340008F2
:103EA0003C0000200248016B491C01637047000080
:103EB0003C000020164810B5016B11B10121C16111
:103EC00010BD0021C1610169124A01E0B9B1491E6A
:103ED00001EB810352F82330002BF7D001EB810373
:103EE00002EB830202F1080453685B685360A3424B
:103EF00001D15B685360DA680260016110BD502037
:103F000080F31188BFF34F8FBFF36F8FFEE7000080
:103F10003C000020681700201CB526490878019055
:103F2000FF20087008788DF800009DF800009DF8CB
:103F3000002000F0F000904207D0502080F311885C
:103F4000BFF34F8FBFF36F8FFEE79DF800001A4C51
:103F500000F0500020700720A06005E09DF80020D0
:103F600052008DF80020401E9DF800201206F5D466
:103F7000A060032807D0502080F31188BFF34F8F33
:103F8000BFF36F8FFEE74FF44070A0600198087098
:103F90000A48016841F470010160016841F0704114
:103FA0000160FFF761FE00206060FCF70DF9002062
:103FB0001CBD000000E400E0B000002020ED00E0A7
:103FC00010B5502080F31188BFF34F8FBFF36F8F70
:103FD00000F036FC18B104494FF080500860002012
:103FE00080F3118810BD000004ED00E0F8B517461D
:103FF0000E46050013D005FB06F05030FFF7F2FC2B
:1040000004000AD0002084F8460004F150023B4628
:10401000314628460094FFF797FA2046F8BD502015
:1040200080F31188BFF34F8FBFF36F8FFEE738B572
:10403000049D18B153B1CAB181B120E0502080F382
:104040001188BFF34F8FBFF36F8FFEE7502080F3CF
:104050001188BFF34F8FBFF36F8FFEE7502080F3BF
:104060001188BFF34F8FBFF36F8FFEE739B1502038
:1040700080F31188BFF34F8FBFF36F8FFEE750249B
:104080001C46012384F846302B460094FFF75CFA67
:10409000204638BD70B50D46040025D0FFF77EFDE3
:1040A000D4E90F20216802FB0011A1600021A16367
:1040B000216861600A46D4E90F01401E00FB01211E
:1040C000E16021464FF0FF3001F8440F487004F1E1
:1040D00010008DB1FFF730FD04F12400FFF72CFD37
:1040E000FFF77CFD012070BD502080F31188BFF3E5
:1040F0004F8FBFF36F8FFEE721690029F0D000F0EA
:1041000089FC0028ECD004494FF080500860BFF3D0
:104110004F8FBFF36F8FE3E704ED00E02DE9FF471A
:1041200082B01D468A464FF00008040003D0BAF161
:10413000000F08D011E0502080F31188BFF34F8F9B
:10414000BFF36F8FFEE7206C38B1502080F31188E9
:10415000BFF34F8FBFF36F8FFEE7022D0AD1E06BE5
:10416000012807D0502080F31188BFF34F8FBFF391
:104170006F8FFEE700F050FB3F4F4FF000094FF00C
:10418000805648B9049838B1502080F31188BFF3A5
:104190004F8FBFF36F8FFEE7FFF700FDA06BE16B62
:1041A000884207D3022D05D00498D0B1B8F1000F92
:1041B0001AD01EE02A4651462046FFF71EF9616AD2
:1041C00019B104F1240000F025FC20B13E60BFF3DA
:1041D0004F8FBFF36F8FFFF701FD012006B0BDE8E1
:1041E000F087FFF7FBFC22E06846FFF7D5FD4FF0B4
:1041F0000108FFF7F3FCFFF755FEFFF7CFFC94F93A
:104200004400401C01D184F8449094F94500401CBE
:1042100001D184F84590FFF7E1FC04A9684600F05D
:1042200077F930B12046FFF7A7FB00F02BFC002008
:10423000D4E7FFF7B3FCA06BE16B884213D1FFF723
:10424000CDFC04F110000499FFF7B4FD2046FFF700
:1042500093FB00F017FC00289ED13E60BFF34F8F08
:10426000BFF36F8F98E7FFF7B9FC2046FFF784FB99
:1042700000F008FC90E7000004ED00E02DE9F047B5
:104280001F4690468946040003D0B9F1000F08D0BC
:1042900011E0502080F31188BFF34F8FBFF36F8F71
:1042A000FEE7206C38B1502080F31188BFF34F8FA8
:1042B000BFF36F8FFEE7022F0AD1E06B012807D012
:1042C000502080F31188BFF34F8FBFF36F8FFEE74D
:1042D000FFF7DCFC5020EFF3118680F31188BFF369
:1042E0004F8FBFF36F8FA06BE16B884206D3022F15
:1042F00004D0002086F31188BDE8F08794F945507A
:10430000A06B3A4649462046FFF777F8681C04D070
:104310006D1C84F845500120ECE7606A0028FAD053
:1043200004F1240000F076FB0028F4D0B8F1000F6F
:10433000F1D00121C8F80010EDE700002DE9F747A2
:10434000002683B08A46040003D0BAF1000F08D0DB
:1043500011E0502080F31188BFF34F8FBFF36F8FB0
:10436000FEE7206C38B1502080F31188BFF34F8FE7
:10437000BFF36F8FFEE700F04FFADFF8F4804FF0E5
:1043800000094FF0805748B9059838B1502080F3A4
:104390001188BFF34F8FBFF36F8FFEE7FFF7FEFB70
:1043A000A56BC5B151462046FFF714F86D1EA563F5
:1043B000206950B104F1100000F02CFB28B1C8F8BE
:1043C0000070BFF34F8FBFF36F8FFFF707FC012023
:1043D00006B0BDE8F087059808B11EB106E0FFF70A
:1043E000FDFB27E06846FFF7D7FC0126FFF7F6FB49
:1043F000FFF758FDFFF7D2FB94F94400401C01D1B0
:1044000084F8449094F94500401C01D184F845900B
:10441000FFF7E4FB05A9684600F07AF8002820467B
:104420000AD0FFF7A9FA00F02DFB2046FFF738F974
:104430000028B3D00020CBE7FFF732F990B104F1A8
:1044400024000599FFF7B6FC2046FFF795FA00F027
:1044500019FB0028A2D1C8F80070BFF34F8FBFF33B
:104460006F8F9BE72046FFF787FA00F00BFB95E77D
:1044700004ED00E02DE9F04790468946040003D0A2
:10448000B9F1000F08D011E0502080F31188BFF37C
:104490004F8FBFF36F8FFEE7206C38B1502080F351
:1044A0001188BFF34F8FBFF36F8FFEE7FFF7EEFB6F
:1044B0005020EFF3118680F31188BFF34F8FBFF3C5
:1044C0006F8FA76BF7B194F9445049462046FEF729
:1044D00081FF7F1EA763681C04D06D1C84F84450C4
:1044E000012010E020690028FAD004F1100000F04B
:1044F00091FA0028F4D0B8F1000FF1D00121C8F8EA
:104500000010EDE7002086F31188BDE8F087000079
:104510002DE9F0410C46050011D0C4B1FFF73EFB78
:10452000174BDA686E682068911B471C17D02F68FC
:104530001B6A9F4219D0964217D8012410E05020E0
:1045400080F31188BFF34F8FBFF36F8FFEE75020CA
:1045500080F31188BFF34F8FBFF36F8FFEE7002406
:10456000FFF73CFB2046BDE8F081884205D9401AA0
:1045700020602846FFF710FCF1E700202060DCE710
:104580003C0000202DE9FF5F8346DDE90E87994658
:1045900016468A469000FFF725FA05001CD05C20DD
:1045A000FFF720FA040014D00020256384F8590096
:1045B000CDE90240CDE900874B4632465146584688
:1045C000FEF7D4FF2046FEF771FE012004B0BDE8DF
:1045D000F09F2846FFF716FB4FF0FF30F6E7F0B5E7
:1045E00085B0DDE90B640A9DA6B1DCB15C270097BC
:1045F0002663022684F85960002604AFCDE90246FE
:10460000CDE90057FEF7B2FF2046FEF74FFE0498B3
:1046100005B0F0BD502080F31188BFF34F8FBFF37A
:104620006F8FFEE7502080F31188BFF34F8FBFF3E9
:104630006F8FFEE72DE9F0411F4690460D4601269B
:1046400090B10446FFF7AAFA0FB1606D386094F894
:104650005800022184F85810B8F1050F19D2DFE88C
:1046600008F0230B0E141200502080F31188BFF3C2
:104670004F8FBFF36F8FFEE7616D294301E0616DDE
:10468000491C616510E0022801D065650CE0002638
:1046900034E0616D491C07D0502080F31188BFF3CE
:1046A0004F8FBFF36F8FFEE7012827D1201DFFF743
:1046B00019FA154DE06A2969884200D92861134921
:1046C00000EB800001EB8000211DFFF75BFAA06A80
:1046D00038B1502080F31188BFF34F8FBFF36F8F35
:1046E000FEE7E06A2968C96A884207D908494FF09D
:1046F00080500860BFF34F8FBFF36F8FFFF76EFAE4
:104700003046BDE8F08100003C0000206817002022
:1047100004ED00E02DE9F0471F46DDF820909246B9
:104720000D4604004FF001081AD0FFF7AFFA5020F1
:10473000EFF3118680F31188BFF34F8FBFF36F8FB4
:104740000FB1606D386094F85800022184F8581059
:10475000BAF1050F1AD2DFE80AF0240B0E1412008A
:10476000502080F31188BFF34F8FBFF36F8FFEE7A8
:10477000616D294301E0616D491C616511E002280A
:1047800001D065650DE04FF0000839E0616D491C0E
:1047900007D0502080F31188BFF34F8FBFF36F8F86
:1047A000FEE701282CD1A06A38B1502080F311888F
:1047B000BFF34F8FBFF36F8FFEE7144D286B18B117
:1047C00004F1180112480DE0201DFFF78BF9E06A93
:1047D0002969884200D928610E4900EB800001EB6D
:1047E0008000211DFFF7CEF9E06A2968C96A884276
:1047F00006D90120B9F1000F01D0C9F80000E86125
:1048000086F311884046BDE8F08700003C00002098
:10481000F01B0020681700200548416919B1006BA2
:1048200018B1002070470120704702207047000037
:104830003C0000200148C068704700003C00002098
:104840002DE9F0412E4C0027206B28B1A069401CB7
:10485000A0613846BDE8F081E668761CE66013D1B9
:10486000606B006838B1502080F31188BFF34F8F20
:10487000BFF36F8FFEE7606BA16B6163A063206A7B
:10488000401C2062FEF7F8FFA06ADFF878808642BD
:1048900009D3606B0068A0B1606BC068C5686868C8
:1048A000864211D2A0622068C06A00EB800158F8ED
:1048B0002100012800D90127E0690028C9D001277B
:1048C000C7E74FF0FF30EDE7281DFFF70BF9A86AA7
:1048D00018B105F11800FFF705F9E86A2169884267
:1048E00000D9206100EB800108EB8100291DFFF752
:1048F00049F9E86A2168C96A8842CAD30127C8E72A
:104900003C000020681700202DE9F0411E461546A6
:1049100088460746FFF742F91C4C206890F858007B
:10492000022814D02068416DB943416521680120F7
:1049300081F858005EB101213046FEF789FC144928
:104940004FF080500860BFF34F8FBFF36F8FFFF7BA
:1049500045F9FFF723F915B12068406D28602068FC
:1049600090F85800022801D0002505E02068416D2C
:1049700021EA0801416501252168002081F85800DD
:10498000FFF72CF92846BDE8F08100003C0000202C
:1049900004ED00E070B504004FF0000133D01B4D72
:1049A0002868844207D0502080F31188BFF34F8FCE
:1049B000BFF36F8FFEE7206D38B1401E2065E36CBA
:1049C000E26A9A421FD040B11DE0502080F3118866
:1049D000BFF34F8FBFF36F8FFEE7201DFFF782F805
:1049E000E06CE062C0F13800A061E06A29698842A9
:1049F00000D92861064900EB800001EB8000211DF1
:104A0000FFF7C0F80121084670BD00003C000020FF
:104A10006817002070B5C068C46854B104F118006C
:104A20000646FFF75FF8144D286B50B13146134826
:104A300015E0502080F31188BFF34F8FBFF36F8FC5
:104A4000FEE7201DFFF74EF8E06A2969884200D989
:104A500028610B4900EB800001EB8000211DFFF76E
:104A600091F8E06A2968C96A884202D90120E861A0
:104A700070BD002070BD00003C000020F01B002035
:104A8000681700202DE9F0472C4D00242746286B9D
:104A900038B1FFF783F8286B401E2863286B40B1BC
:104AA00046E0502080F31188BFF34F8FBFF36F8F24
:104AB000FEE7A968224E0120D1B3A6F59169804690
:104AC0003068E0B1F068C46804F11800FFF70AF834
:104AD000201DFFF707F8E06A2969884200D928619C
:104AE00000EB800109EB8100211DFFF74BF8E06A24
:104AF0002968C96A8842E3D3C5F81C80E0E70CB195
:104B0000FEF7BAFEAC694CB14FEA0806FFF798FE13
:104B100000B1EE61641EF9D10020A861E86938B1E6
:104B20000849012738070860BFF34F8FBFF36F8F25
:104B3000FFF754F83846BDE8F08700003C0000203D
:104B4000F01B002004ED00E010B586B0FEF716FC67
:104B5000114C2068B8B100200390049005AA04A964
:104B600003A8FEF7DDFFDDE9032102208DE8070041
:104B700000230AA10B48059AFFF731FD606010B1D0
:104B800006B0012010BD502080F31188BFF34F8F75
:104B9000BFF36F8FFEE7000078000020546D722095
:104BA00053766300553900082DE9FF411E46134630
:104BB00002000A9D4FF0000016D0144C2768002F09
:104BC0000FD0CDE900130292062917DAFFF724FE71
:104BD00002284FF000030FD0002269462068FFF73B
:104BE0009DFA04B0BDE8F081502080F31188BFF336
:104BF0004F8FBFF36F8FFEE72A46EEE70023324662
:104C000069463846FFF73AFBEBE7000078000020E2
:104C100010B500290AD00878002807D00548784444
:104C2000FBF722FE002801D0002010BD0248784486
:104C300010BD0000FE010000F60100009C4D0008C0
:104C400000000000880400205C00000088010020B3
:104C50000003000028000000000000000000000029
:104C6000AC4D000800000000E40600205C000000DD
:104C7000E404002000020000180000000000000012
:104C800000000000B84D000800000000400D0020AA
:104C90005C00000040070020000600000800000043
:104CA0000000000000000000884D00080000000027
:104CB0009C0F00205C0000009C0D00200002000002
:104CC000080000000000000000000000C44D0008C3
:104CD00000000000F81100205C000000F80F002028
:104CE00000020000080000000000000000000000BA
:104CF000944D000800000000541400205C000000E7
:104D00005412002000020000080000000000000013
:104D100000000000D44D000800000000000000006A
:104D2000000000000000000000000000F04D00083E
:104D30000000000000000000000000000000000073
:104D400000000000E44D000800000000000000002A
:104D5000000000000000000000000000010202034B
:104D60000405060708090A0B0C0D0E0F10100000B1
:104D7000000000000000010203040607080900000B
:104D80000000010203040000436F6D6D616E645FFB
:104D90005461000041636B5F546100004D6F746F9C
:104DA00072436F6E74726F6C5F546100456E636F17
:104DB0006465725F546100004C6F676765725F5491
:104DC000610000004865617274626561745F5461DE
:104DD00000000000436F6D6D616E6451756575650F
:104DE0000000000041636B517565756500000000AF
:104DF0004D6F746F72517565756500002C4F00081A
:104E000000000020BC00000028010008E84F000856
:104E1000BC000020A435000044010008100100007F
:104E200043000000F8FFFFFF00404040404040408A
:104E3000404041414141414040404040404040406D
:104E40004040404040404040400502020202020211
:104E50000202020202020202022020202020202060
:104E60002020200202020202020290909090909074
:104E70001010101010101010101010101010101032
:104E800010101010020202020202888888888888A6
:104E90000808080808080808080808080808080892
:104EA000080808080202020240000000000000009A
:104EB00000000000000000000000000000000000F2
:104EC00000000000000000000000000000000000E2
:104ED00000000000000000000000000000000000D2
:104EE00000000000000000000000000000000000C2
:104EF00000000000000000000000000000000000B2
:104F000000000000000000000000000000000000A1
:104F10000000000000000000000000000000000091
:104F20000000000000000000000000000000000081
:104F30000000000000000000000000000000000071
:104F40000000000000000000000000000000000061
:104F50000000000000000000010000001000000040
:104F60000000000000127A000000000000000000B5
:104F70000000000000000000000000000000000031
:104F80000000000000000000000000000000000021
:104F90000000000000000000000000000000000011
:104FA0000000000000000000000000000000000001
:104FB00000000000000000000000000000000000F1
:104FC00000000000000000000000000000000000E1
:104FD00000000000000000000000000000000000D1
:084FE000AAAAAAAA0000000021
:04000005080000ED02
:00000001FF
