:020000040800F2
:10000000B007002089010008CF2400080D1900085E
:10001000CD2400088F020008992900080000000084
:10002000000000000000000000000000F5240008AF
:100030009102000800000000D5240008F724000801
:10004000A3010008A3010008A3010008A301000800
:10005000A3010008A3010008A3010008A3010008F0
:10006000A3010008A3010008A3010008A3010008E0
:10007000A3010008A3010008A3010008A3010008D0
:10008000A3010008A3010008A3010008A3010008C0
:10009000A3010008A3010008A3010008A3010008B0
:1000A000A3010008A3010008A3010008A3010008A0
:1000B000A3010008A3010008A30100081D190008FE
:1000C00011190008A3010008A3010008D9240008A1
:1000D000A30100088D290008A3010008A30100085E
:1000E000A3010008A3010008A301000800F002F822
:1000F00000F03AF80AA090E8000C82448344AAF188
:100100000107DA4501D100F02FF8AFF2090EBAE885
:100110000F0013F0010F18BFFB1A43F0010318473B
:10012000EC2800000C290000103A24BF78C878C1E0
:10013000FAD8520724BF30C830C144BF04680C60ED
:10014000704700000023002400250026103A28BF35
:1001500078C1FBD8520728BF30C148BF0B60704739
:100160001FB51FBD10B510BD00F058F81146FFF7C0
:10017000F7FF02F022FC00F076F803B4FFF7F2FF7D
:1001800003BC00F07DF8000009488047094800479B
:10019000FEE7FEE7FEE7FEE7FEE7FEE7FEE7FEE737
:1001A000FEE7FEE704480549054A064B7047000094
:1001B0005B250008ED000008B0010020B00700201A
:1001C000B0030020B00300204FF0000200B513463A
:1001D00094469646203922BFA0E80C50A0E80C5067
:1001E000B1F12001BFF4F7AF090728BFA0E80C5018
:1001F00048BF0CC05DF804EB890028BF40F8042B11
:1002000008BF704748BF20F8022B11F0804F18BF7D
:1002100000F8012B7047704770477047754600F033
:100220002BF8AE4605006946534620F00700854688
:1002300018B020B5FFF7B6FFBDE820404FF000062C
:100240004FF000074FF000084FF0000B21F00701BE
:10025000AC46ACE8C009ACE8C009ACE8C009ACE801
:10026000C0098D46704710B50446AFF300802046A4
:10027000BDE81040FFF781BF004870474C010020E7
:1002800001491820ABBEFEE7260002007047FEE7DA
:10029000704772B6FEE710B590F8211000220229CF
:1002A00005D00421816380F82020012010BD016861
:1002B0000B6823F00E030B6001680B6823F0010349
:1002C0000B6090F84030C46B012101FA03F36360C6
:1002D00080F8211080F82020104610BD10B590F84D
:1002E00021100024022903D00421816301243DE070
:1002F00001680A6822F00E020A6001680A6822F0AA
:1003000001020A601A4A0168914201D1012121E0EB
:10031000174A1432914201D110211BE0144A2832AD
:10032000914201D1891515E0114A3C32914201D127
:1003300089140FE00E4A5032914202D14FF48031BD
:1003400008E00B4A6432914202D14FF4801101E07F
:100350004FF08071064A083A5160012180F821105F
:10036000002180F82010416B01B18847204610BD64
:100370000800024090F821007047000070B5044664
:1003800000F004F90546601C02D0044800780444DB
:1003900000F0FCF8401BA042FAD370BD0000002022
:1003A0002DE9F84FDFF8B8910024A9F1040B23469A
:1003B0000F2709F1040AABF1040EC9E00125A5409D
:1003C0002A40AA427DD1674ED1F804C0ACEB0608A2
:1003D000B44532D014DCBCF1030F3AD009DCBCF1D7
:1003E000000F2AD0BCF1010F1CD0BCF1020F31D19B
:1003F0001DE0BCF1110F17D0BCF1120F2AD119E08A
:10040000B8F5881F19D006DCB8F5803F15D0B8F5CF
:10041000801F1FD111E0B8F5001F0ED0B8F5041FE2
:1004200018D10AE0CB6815E0CB681B1D12E0CB6841
:1004300008330FE0CB680C330CE08B682BB1012B39
:100440004FF0080303D0456104E0042302E0056196
:1004500000E00023FF2A01D8064601E000F104066F
:100460004FEA840501D9A5F12005D6F8008007FAE6
:1004700005FC28EA0C0803FA05F548EA0508C6F861
:1004800000804D68ED0062D5374DAE6946F001063B
:10049000AE61AD6924F0030605F001050095334D0A
:1004A00006EB050CDCF80850A607360F07FA06F82D
:1004B00025EA0805DFF8B880404503D14FF0000871
:1004C00017E044E0DFF8AC80404502D14FF001086E
:1004D0000FE0DFF8A480404502D14FF0020808E0A9
:1004E000DFF89880404502D14FF0030801E04FF05B
:1004F000040808FA06F848EA0508CCF808804D68B0
:10050000D9F80060ED024D4601D5164300E0964350
:100510002E604D68DAF80060AD02554601D51643ED
:1005200000E096432E604D68DBF80060AD035D4649
:1005300001D5164300E096432E604D68DEF800605A
:10054000ED03754601D5164300E096432E60641C0A
:100550000D682A46E5407FF431AFBDE8F88F000012
:10056000080401400000111000100240000001408A
:1005700000080140000C014000100140001401403F
:100580000AB1016170470904FBE700000148806877
:100590007047000000000020704770472DE9F041CF
:1005A000016804464A694E6890F83E000025D7432A
:1005B000FA050BD4F243D20508D46FF480720125FA
:1005C0004A6121680A6842F400420A60B90508D409
:1005D000F143C90505D422686FF4007145F00205A6
:1005E0005161790525D4F143C90522D4638D94F86E
:1005F0003D10226B202808D13BB9212910D0292990
:100600000ED0282901D1212A0AD022686FF48061F6
:10061000516145F00405102806D0402804D008E0B8
:10062000204601F083FD04E02068016841F4007178
:100630000160380508D4F043C00505D421686FF483
:10064000006045F008054861002D07D0206C284364
:1006500020642046BDE8F04101F0CCB9BDE8F0814E
:100660002DE9F047026800215368C66A90F83E40C1
:1006700090F83D50102C12D0402C10D0046C002C5F
:100680007DD05469E443A6077AD4DE43B60577D417
:10069000036C03B19169BDE8F04701F023BD976990
:1006A00051694FF42A0CC9435FEAC1784FF02A49D7
:1006B00004D066452AD04E4528D010E0DE43B6056A
:1006C0000DD4C16A614501D1012103E0C16A4945E8
:1006D00001D10821C162BDE8F04701F069BC0E07F5
:1006E00016D4DE43B60513D4416CC9B21161416B17
:1006F00009B1896A29B9816B002907D0896A002963
:1007000004D00068416841F400614160BDE8F087B1
:100710008E0706D4DE43B60503D4BDE8F04701F0EA
:100720009BBBFE43526876074FEA02521DD4002A53
:10073000ECDB0A0608D4DA43520505D4490705D58F
:10074000BDE8F04701F02CBB4907DFD4D943890548
:10075000DCD4212D05D0402CD8D1BDE8F04701F0E4
:100760006DBCBDE8F04701F0D9BA002ACEDB4A06DD
:100770000BD4DA43520508D4490708D501E00DE04F
:100780000EE0BDE8F04701F04FBA4907BED4D943A7
:100790008905BBD4BDE8F04701F0D8B9916970E78D
:1007A000E10606D4D943890503D4BDE8F04701F03A
:1007B00005BD2821212D27D0292D25D0650655D40A
:1007C000DD436D0552D4640752D590F83D30448D19
:1007D000002C9BD01269446A2270426A521C426209
:1007E000428D521E4285428D002A8FD12A2B8DD1F7
:1007F0000268536823F4806353602222026380F806
:100800003D1000F04FF981E7250623D4DD436D0547
:1008100020D4640720D590F83D30448D002CF2D0D0
:10082000446A24781461426A521C4262428D521E0C
:100830004285428D002AE6D1292BE4D10268536813
:1008400023F4806353602122026380F83D1000F09E
:100850002AF95BE76107D6D4D9438905D3D4418D02
:100860000029D0D0416A097811610AE06107CAD431
:10087000D9438905C7D4418D0029C4D01169426A82
:100880001170416A491C4162418D491E41853DE715
:100890007047000070B5040025D094F83D00002595
:1008A00020B984F83C50204600F0BEF8242084F89B
:1008B0003D002068016821F00101016020680168A5
:1008C00041F4004101602068016821F400410160A9
:1008D00000F020FA4D4A6168914201D84C4900E08D
:1008E0004C49884201D2012070BD4B492368B0FBBE
:1008F000F1F15E6826F03F060E435E606368934246
:1009000006D94FF4967359434FF47A73B1FBF3F160
:100910002368491C1E6A26F03F063143196261684C
:10092000914210D84900401EB0FBF1F2521CC2F3B4
:100930000B02042A01D2042022E0B0FBF1F0401C9B
:10094000C0F30B001CE0A268F2B301EBC10303EBA0
:100950000116431EB3FBF6F35B1C43F480431B05F7
:1009600049D092B301EBC10202EB0111401EB0FB72
:10097000F1F0401CC0F30B0040F4804040F4004014
:100980002168CA694CF6FF739A431043C861D4E9E1
:10099000071001432068026822F0C0021143016081
:1009A000D4E9030101432068826848F2FF339A4387
:1009B00011438160D4E9050108432168CA6822F027
:1009C000FF021043C86001E00EE016E020680168F5
:1009D00041F0010101602564202084F83D00256379
:1009E00084F83E50002070BD01EB4106431EB3FB6E
:1009F000F6F35B1CB3E70120C2E701EB4101401EA7
:100A0000B0FBF1F0401CC0F30B00B7E7A08601007B
:100A100080841E0000093D0040420F00704770476F
:100A2000704770477047000010B586B000210091F4
:100A30000191029103910068174988422AD1174C0D
:100A4000A06940F00800A061A069694600F00800B4
:100A50000490C020009012200190032003901048C1
:100A6000FFF79EFCE06940F40010E061E0690022BD
:100A700000F40010049011461F2000F07BF81F20A6
:100A800000F06AF800221146202000F073F82020C0
:100A900000F062F806B010BD0054004000100240A3
:100AA000000C014070477047024881680278114489
:100AB0008160704700000020074810B5016841F0D0
:100AC00010010160032000F075F80F2000F006F817
:100AD00000F024F8002010BD0020024070B50D4D3C
:100AE00004464FF47A712878B1FBF0F00A4909689E
:100AF000B1FBF0F000F0FCFB48B9102C07D200224B
:100B00002146501E00F036F800206C6070BD0120B8
:100B100070BD0000000000200C0000200C4808B54B
:100B2000816941F001018161816901F00101009158
:100B3000C16941F08051C161C06900F080500090EE
:100B40000448416821F0E06141F00071416008BD56
:100B50000010024000000140002809DB00F01F02E5
:100B6000012191404009800000F1E020C0F800110F
:100B700070470000F0B40E4B1B680C46C3F3022311
:100B8000C3F10705042D00D90425191D072901D239
:100B9000002300E0DB1E012606FA05F1491E214074
:100BA00099409E40761E16403143F0BC01F0F5BEE0
:100BB0000CED00E0064900F0070208684FF6FF035D
:100BC000184040EA0220034A1043086070470000C2
:100BD0000CED00E00000FA05704700002DE9F04739
:100BE0000F46050061D0434E306800F00700B84260
:100BF00009D2306820F0070038433060306800F0D8
:100C00000700B84251D128683B4C810712D54007F4
:100C100003D5606840F4E06060602878000703D581
:100C2000606840F4605060606068A96820F0F0007F
:100C3000084360602878C00728D06868012810D071
:100C40002168022810D0890700292EDA616821F076
:100C5000030101436160FFF799FC804641F2883946
:100C60000DE021688903EFE78901EDE7FFF78EFCCE
:100C7000A0EB0801494502D90320BDE8F087606870
:100C8000696800F00C00B0EB810FEFD1306800F024
:100C90000700B8420BD9306820F0070038433060B5
:100CA000306800F00700B84201D00120E5E728785D
:100CB000400705D56068E96820F4E060084360609B
:100CC0002878000706D56068296920F4605040EA5A
:100CD000C100606000F03EF86168084AC1F303118A
:100CE000515CC8400649086006480068FFF7F6FEF8
:100CF0000020C2E70020024000100240F429000852
:100D00000C0000200400002001490120C864704745
:100D1000000042420448054900684968044AC1F39A
:100D20000221515CC84070470C00002000100240B6
:100D3000042A00080448054900684968044AC1F3C8
:100D4000C221515CC84070470C00002000100240D6
:100D5000042A00080E4A51680E4801F00C03042BC7
:100D600011D0082B0FD10C48C1F38343C903C05CD9
:100D70000AD55168084AC1F34041921E515C054AA8
:100D80005043B0FBF1F070470449484370470000FE
:100D90000010024000127A00E429000800093D001A
:100DA00010B5044CA068000603D5FFF715FF80209E
:100DB000A07210BD001002402DE9F84F040070D061
:100DC0002078C04DC00749D06868C0F38100012871
:100DD00007D06868C0F38100022809D16868C003A1
:100DE00006D52868800339D560680028E7D035E04B
:100DF0006068B0F5803F0BD010B1B0F5A02F11D0D6
:100E0000286820F480302860286820F4802002E0E0
:100E1000286840F480302860606890B1FFF7B6FB26
:100E200006460AE0286840F480202860F0E700BF0A
:100E3000FFF7ACFB801B642873D828688003F7D5C4
:100E40000CE0FFF7A3FB064605E000BFFFF79EFBA3
:100E5000801B6428F0D828688003F7D420789A4E45
:100E600080074FF001094FF0000839D5686810F08D
:100E70000C0F07D06868C0F38100022809D16868A8
:100E8000C00306D42868800714D52069012808D13A
:100E900010E02069B0B1C6F80090FFF777FB074675
:100EA00005E00AE1FFF772FBC01B0228C4D82868DE
:100EB0008007F7D52868616920F0F80040EAC10092
:100EC00028600DE0C6F80080FFF760FB074604E0ED
:100ED000FFF75CFBC01B022823D828688007F7D4E3
:100EE000207800072CD57948A169D9B1C0F80090C5
:100EF000FFF74CFB074604E0FFF748FBC01B022846
:100F00000FD8686A8007F7D571484FF4FA51006826
:100F1000B0FBF1F0009000BF0098411E0091FAD2A2
:100F20000EE080E0C0F80080FFF730FB074604E0E9
:100F3000FFF72CFBC01B022875D8686A8007F7D41E
:100F40002078400760D5E8690027C00008D4E86928
:100F500040F08050E861E869012700F0805000907F
:100F60005C480168C90513D40168834641F4807167
:100F70000160FFF70BFB824606E000BFFFF706FBB0
:100F8000A0EB0A0064284ED8DBF80000C005F5D5B8
:100F9000E06801280AD008B1052813D0286A20F09B
:100FA00001002862286A20F0040002E0286A40F06C
:100FB00001002862E06841F2883B98B1FFF7E6FA49
:100FC00082460BE0286A40F004002862EEE700BF8A
:100FD000FFF7DCFAA0EB0A0159455AD8286A8007C6
:100FE000F6D50CE0FFF7D2FA824605E0FFF7CEFA1D
:100FF000A0EB0A0159454CD8286A8007F6D41FB1E6
:10100000E86920F08050E861E06988B36968C1F35D
:101010008101022944D00228C6F8608004D0FFF77D
:10102000B5FA044638E034E0FFF7B0FA074604E0CA
:10103000FFF7ACFAC01B02282BD828688001F7D430
:10104000206AB0F5803F05D16868A16820F40030BF
:1010500008436860D4E908010843696821F4741101
:1010600008436860C6F86090FFF790FA044606E00F
:1010700025E000BFFFF78AFA001B022809D828687C
:101080008001F7D51BE000BFFFF780FA001B0228A4
:1010900002D90320BDE8F88F28688001F4D40EE05F
:1010A0000128F7D06868226A00F48031914204D1A7
:1010B000616A00F47010884201D00120EAE7002044
:1010C000E8E7000000100240000042428004424273
:1010D0000C000020007000407047000038B5044646
:1010E000006842688168C9434B0606D5CB0704D126
:1010F000D3435B0601D4216C05E08B0708D4D343AE
:101100001B0605D4616C01B02046BDE8304008479D
:101110008B0601D54B0646D4D3439B0643D44B06DE
:101120000AD494F85130032B3ED0636D43F004038E
:101130006365C36883680093890609D4616D41F0D3
:101140000101616581680091016821F04001016041
:10115000606D002827D02068416821F0E0014160DF
:10116000012084F85100900722D02068416821F0C6
:1011700003014160104DE06C40B14563E06CFFF746
:10118000ADF818B1606D40F040006065A06C0028BB
:1011900009D04563A06CFFF7A1F8002803D0606D6B
:1011A00040F04000606538BDC1688068009038BD7F
:1011B0002046FFF791FF38BDE524000870B5040014
:1011C00009D0606A002540B125616561A56294F887
:1011D000510040B10CE0012070BD6068B0F5827F25
:1011E000F4D0E561F2E784F85050204600F040F872
:1011F000022084F851002068016821F0400101605C
:10120000A088218900F4827001F404410843A18977
:1012100001F400610843217C01F002010843217DB3
:1012200001F001010843218B01F400710843217F83
:1012300001F03801084394F8201001F080010843C0
:10124000218D01F40051084321680860A069042140
:1012500001EA1040216848602068C16921F40061FA
:10126000C1616565012084F85100002070BD000057
:1012700030B585B000240094019402940394006872
:10128000184988422BD11848816941F48051816105
:10129000816901F480510491816941F00401816107
:1012A0008069124D00F004000490A02000900220FC
:1012B00001900320039069462846FFF771F840200B
:1012C000CDE90004694628460294FFF769F8002238
:1012D00011462320FFF74EFC2320FFF73DFC05B00D
:1012E00030BD000000300140001002400008014005
:1012F00010B5401EB0F1807F01D3012010BD4FF02A
:10130000E02460610F21601701F047FB0020A0611D
:1013100007202061002010BD70B590F83C20012A04
:1013200026D0012480F83C40022280F83D2003684A
:101330005A689D6822F070060A6832435A600D4B65
:1013400002689A4208D0B2F1804F05D00A4B9A4207
:1013500002D00A4B9A4204D1496825F08003194310
:10136000916080F83D40002180F83C10084670BD37
:10137000022070BD002C0140000400400008004025
:1013800000B585B0002100910191029103910068A0
:10139000B0F1804F11D10A48816941F004018161A7
:1013A0008069694600F0040004900120009002204A
:1013B000019003900348FEF7F3FF05B000BD000065
:1013C000001002400008014070B5044690F83C004F
:1013D00000260D4601280FD0012084F83C006AB198
:1013E000042A1DD0082A2FD00C2A3FD00126002025
:1013F00084F83C00304670BD022070BD206801F0CA
:10140000E9F82068816941F00801816120688169FB
:1014100021F004018161206881692A69114311E08A
:10142000206801F0FFF82068816941F40061816162
:101430002068816921F480618161206881692A695D
:1014400041EA02218161D2E7206801F017F92068A2
:10145000C16941F00801C1612068C16921F004013E
:10146000C1612068C1692A69114311E0206801F057
:1014700031F92068C16941F40061C1612068C16926
:1014800021F48061C1612068C1692A6941EA0221B1
:10149000C161ACE710B5040003D094F83D0010B171
:1014A00007E0012010BD002084F83C00204600F039
:1014B0001FF8022084F83D00211D206801F04EF83D
:1014C000012084F8460084F83E0084F83F0084F848
:1014D000400084F8410084F8420084F8430084F816
:1014E000440084F8450084F83D00002010BD000051
:1014F00008B50068B0F1804F08D10548C16941F0D6
:101500000101C161C06900F00100009008BD000048
:101510000010024070477047F8B50168044608683B
:10152000CA684B6910F00F0F4FF0000559D003F057
:10153000010602F49077374365D0C10705D0D10585
:1015400003D5616C41F001016164410705D5D907FC
:1015500003D0616C41F002016164810705D5D907B0
:1015600003D0616C41F004016164010707D502F00A
:101570002001314303D0616C41F008016164616C6A
:1015800000293AD0800604D5900602D5204601F005
:10159000F2F820684069616CC0F38010090700D43C
:1015A00060B3204601F0C0F820684069400621D5AC
:1015B0002068143050E8001F21F0400140E800127C
:1015C000002AF5D1E06BA8B16D494163E06BFEF7ED
:1015D00085FE002811D0E06B416B01B0BDE8F04002
:1015E000084783060FD593060DD52046BDE8F84081
:1015F00001F0C1B82046FFF78EFFF8BD2046FFF787
:101600008AFF6564F8BD266B2023012E7CD1C606B7
:101610007AD5D60678D508684868009048694FF0B2
:101620000206400640D5E16B086840680004000CE3
:10163000E8D0A28D8242E5D9E085886920282DD0A6
:1016400020680C3050E8001F21F4807140E800123F
:10165000002AF5D12068143050E8001F21F0010164
:1016600040E80012002AF5D12068143050E8001F2D
:1016700021F0400140E80012002AF5D184F8423000
:10168000256320680C3050E8001F21F0100140E86D
:101690000012002AF5D1E06BFEF7FDFD6663A08D18
:1016A000E18D401A81B22AE0A08DE18D401A81B20D
:1016B000E08D0028A6D00029A4D022680C3252E880
:1016C000000F20F4907042E80007002FF5D1206849
:1016D000143050E8002F22F0010240E80027002FCC
:1016E000F5D184F84230256320680C3050E8002F93
:1016F00022F0100240E80023002BF5D1666320465B
:10170000FFF708FFF8BDFFE705062BD5150629D51D
:1017100094F841002128F5D1A068B0F5805F01D18F
:101720002069B0B1206A411C2162216800784860BC
:10173000E08C401E0004000CE084E3D12068C16806
:1017400021F08001C1602068C16841F04001C160A2
:10175000D8E7206A0088C0F308004860206A801C2F
:101760002062E5E74006CDD55006CBD5CA682046B5
:1017700022F04002CA6084F8413000F0C6F8C1E7A8
:101780001927000870B5040004D094F84100002522
:1017900010B106E0012070BD84F84050204600F0F2
:1017A00023F8242084F841002068C16821F4005106
:1017B000C160204601F040F82068016921F49041A1
:1017C00001612068416921F02A0141612068C168F6
:1017D00041F40051C1606564202084F8410084F820
:1017E00042006563002070BD30B585B000240094D0
:1017F0000194029403940068184988422CD1184837
:10180000816941F480418161816901F480410491E1
:10181000816941F0040181618069124D00F004008A
:1018200004904FF400700090022001900320039078
:1018300069462846FEF7B4FD2815CDE9000469463F
:1018400028460294FEF7ACFD002211462520FFF742
:1018500091F92520FFF780F905B030BD003801402F
:10186000001002400008014070472DE9F84304468B
:1018700090F84100984616460D46202802D00220D6
:10188000BDE8F88385B17EB100206064212084F832
:101890004100FEF77BFEA6848146E684A0682027EF
:1018A000B0F5805F02D003E00120E9E7206910B1C4
:1018B0002E4600250EE000260CE08021204601F097
:1018C0002BF8A8B9C6B116F8010B21684860E08C66
:1018D000401EE084E08C4B464FF00002CDF80080C3
:1018E0000028EAD14FF04001204601F015F840B140
:1018F00084F841700320C3E735F8020BC0F30800F9
:10190000E3E784F841700020BAE77047FEE7000083
:101910000148FEF743BE0000100000200148FEF71A
:101920009FBE00001000002038B5406A002190F8EA
:101930003D202B4B46F2A8141B68B3FBF4F3C3EB1A
:10194000C30303EB830300933BB15B1E0093036867
:101950001B689B0505D5009BF6E7036C43F020034D
:101960000364436B03B19962836B03B199620368AB
:101970001C6824F480641C604185436B03B1596387
:10198000836B03B1596303681C6824F001041C6075
:1019900090F83D402023602C0BD0282434EA02022A
:1019A0000FD080F83D3080F83E1000BFFEF770FF8A
:1019B00038BD80F83D3080F83E100164FEF7ECFD44
:1019C00038BD0268136843F00103136002681368AE
:1019D00043F480631360016380F83D40E6E7000054
:1019E0000C00002000684169C943090601D40021A8
:1019F0000161704770B5044690F83D0094F83E10C0
:101A0000102901D0402906D1222804D121680A6872
:101A100022F400620A60282131EA00024FF000053A
:101A20004FF0200626D021684968090505D46028B2
:101A300003D084F83D6084F83E50256320684168F7
:101A4000090537D5416821F400614160606B90F869
:101A500021203C49012A11D04163606BFEF73EFC16
:101A600038B32068016821F00101016084F83D600D
:101A7000606B1CE0256384F83D10DFE7A06B4163D9
:101A8000A06BFEF72BFCA0B120684169C943490651
:101A900005D40069616A0870606A401C6062206851
:101AA000016821F00101016084F83D60A06B416B89
:101AB000884710E094F83D10602910D04169C9436F
:101AC000490605D40069616A0870606A401C60625A
:101AD0002046FEF7DDFE206CC1071CD115E084F81E
:101AE0003D6025644169C943490605D40069616ABE
:101AF0000870606A401C60622068016821F0010182
:101B000001602046FEF748FDE5E7810703D4410761
:101B100001D4000704D52068416821F4E0614160E8
:101B200094F83D00216C49070BD5282809D10648B7
:101B3000E062256384F83D6084F83E502046FEF75D
:101B40006DFF70BD291900080000FFFF10B5C26AC3
:101B5000438D0168042B06D0438D032B08D0438DA1
:101B6000022B1DD012E04A6822F480624A600CE029
:101B70004B6823F480634B60042A06D0022A04D009
:101B800001680A6822F480620A6001680969426A91
:101B90001170416A491C4162418D491E418510BD49
:101BA000012A34D0102A32D0042A34D0022A32D06A
:101BB0000B6843F400730B6001680969436A19708C
:101BC000416A491C4162438D5B1E438503681B6962
:101BD0000B70416A491C4162418D491E4185016873
:101BE0004B6823F440734B60202180F83D1090F83F
:101BF0003E300021402B80F83E1010D0082A02D041
:101C0000202A00D012210163FEF709FF10BD0B68E6
:101C100023F48063CFE70B6843F48063CBE7016371
:101C2000FEF7FFFE10BD000038B590F83D102229E8
:101C300010D1C36A418D03290DD901680969426A2F
:101C40001170416A491C4162418D491E4185418D97
:101C5000032906D038BDC26A022A02D0012906D063
:101C600029B10068416821F48061416038BD2A4A89
:101C700046F2A81400211268B2FBF4F202EB8202D1
:101C8000009202682024009D6D1E009526D01568E4
:101C9000AD05F8D4156825F48065156002685568AF
:101CA00025F4E065556002681269456A2A70426A47
:101CB000521C4262428D521E428580F83D4090F88F
:101CC0003E2080F83E10402A21D0082B02D0202B45
:101CD00000D012210163FEF7A2FE38BD036C43F071
:101CE00020030364536823F4E063536002681269BD
:101CF000436A1A70426A521C4262428D521E4285E9
:101D000080F83D4080F83E10FEF7C2FD38BD01630B
:101D1000FEF787FE38BD00000C00002010B5C26A37
:101D200090F83D1021290BD1418D51B1416A0268D3
:101D300009781161416A491C4162418D491E418502
:101D400010BD20230021082A13D0202A11D012F51B
:101D5000803F0ED00268546824F4E064546011227D
:101D6000026380F83E1080F83D3000BFFEF758FE59
:101D700010BD0268546824F4E0645460026814687A
:101D800044F400741460016380F83D3090F83E2004
:101D900080F83E10402AE9D1FEF744FE10BD000055
:101DA00010B590F83D1090F83E30C26A048DB4B181
:101DB000212903D0402B11D122290FD1418DE1B32C
:101DC00090F83E10402942D0416A026809781161BA
:101DD000416A491C4162418D491E418510BD21293E
:101DE000E8D120230021082A13D0202A11D012F58F
:101DF000803F0ED00268546824F4E06454601122DD
:101E0000026380F83E1080F83D3000BFFEF708FE08
:101E100010BD0268546824F4E064546002681468D9
:101E200044F400741460016380F83D3090F83E2063
:101E300080F83E10402AE9D100E002E0FEF7F2FD12
:101E400010BD0068416821F48061416010BDBDE8AB
:101E5000104000F0F3B8000078B590F83E50C26A28
:101E6000046B90F83D6000230168222E73D1066D4B
:101E70000EB9402D6FD0056D1DB90569B5F5404F00
:101E80001BD0458D95B3468D484D012E20D0448DF5
:101E9000022C4DD00C6844F480640C6001684C68DE
:101EA000240579D5AA4273D0012A71D0082A6FD0AF
:101EB000102A6DD0202A6BD06EE04A698A690092A0
:101EC0000A6842F480720A60016D491C016578BDA0
:101ED000AA4214D10A6822F480620A6001684A6842
:101EE000120504D50A6822F4806217E0FFE74A6908
:101EF0008A6900920A6842F400720A6050E0082A77
:101F000010D0202A0ED0122C0AD0042A03D0022A84
:101F100001D0102AE6D10A6842F480620A603BE0F0
:101F2000012ADFD00A6822F480620A600168DEE7D5
:101F3000042A11D0022A0FD0102A0DD00C6844F4C4
:101F400000640C6001684C698C6900940C6824F48E
:101F500080640C6008E025E00C6844F480640C6048
:101F600001684C698969009101684C68240517D59E
:101F7000AA4207D0012A05D0082A03D0102A01D08E
:101F8000202A0DD14A6842F480524A6008E0FFE7F7
:101F90004A6842F480524A6001684A69896900913E
:101FA000036578BD48698869009078BD0000FFFF2F
:101FB00090F83E10402910D00169B1F5804F19D03A
:101FC000016DA9B3016D012910D1416C5FF0F102DF
:101FD00001F4407142EAD11106E0016D0029416C23
:101FE00005D0C9B241F0010100680161704701F0FC
:101FF000FE01F9E790F83D102129416C09D0C9B2E2
:1020000041F0010102681161416B29B1896A49B946
:1020100002E001F0FE01F5E7816B0029E6D0896A54
:102020000029E3D00068416841F4006141607047D5
:10203000FFE7416CF02201F44071CBE710B590F856
:102040003D10026D4AB1026D012A14D0026D022AC0
:1020500016D0BDE81040FFF7C5BCC16C0129816CEA
:1020600002D0C1F3072108E00268C9B21161016D15
:10207000891C016510BD816CC9B20268116123E041
:1020800022291CD0428D0AB1212920D0428D002A5C
:10209000F0D12129EED101684A6822F4E0624A6059
:1020A00001680A6842F400720A600021016320227C
:1020B00080F83D2080F83E10FEF7B4FC10BD0168AA
:1020C0000A6842F480720A60016D491CD1E7416AD6
:1020D000026809781161416A491C4162418D491EBB
:1020E000418510BD38B50C4690F83D2000212825CB
:1020F000954302680B4605D051699169009180F8BB
:102100003C3038BD556825F480655560E24354077E
:1021100000D50121120601D5828900E0028B80F8EA
:102120003C3092B2FEF739FA38BD00002DE9F0419B
:1021300090F83D300446C26A002120261E4F0068F8
:102140006FF48065082A01D0202A01D1282B04D001
:10215000212B17D04561BDE8F081E762426822F487
:10216000E0624260206845612068026822F4806273
:102170000260216384F83D6084F83E102046FEF73B
:102180004DFCE8E7E7622122226384F83D6084F891
:102190003E10416821F4E06141602068456120689B
:1021A000016821F4806101602046FFF71BFC204696
:1021B000FEF779FCCFE700000000FFFFF8B590F8CC
:1021C0003D6004460068416821F4E0614160206898
:1021D000002541690091016841F00101016020681A
:1021E000016821F48061016020684168090520D5FB
:1021F000474F222E48D02A2E46D0616B0968496885
:102200006185618D19B1216C41F00401216441683F
:1022100021F400614160606BFEF7ACF8012808D042
:10222000606B4763606BFEF759F810B1606B416BF0
:102230008847608D08B320684169C943490708D4BD
:102240000069616A0870606A401C6062608D401EAF
:10225000608520684169C943490608D40069616AFC
:102260000870606A401C6062608D401E6085608DF1
:1022700018B1206C40F004002064206C00B32046AC
:10228000BDE8F840FFF7B6BBA16B096849686185F6
:10229000618D19B1216C41F004012164416821F480
:1022A00000614160A06BFEF765F80128C1D0A06B0A
:1022B0004763A06BFEF712F80028BAD0A06BB6E710
:1022C0002A2E06D12563282084F83D002046FEF7FB
:1022D000E9FB94F83D10202028290DD0216B2229FC
:1022E00001D0222E07D1256384F83D0084F83E50AA
:1022F0002046FEF7D7FBF8BD0649E162256384F866
:102300003D0084F83E502046FEF788FBF8BD0000F3
:10231000291900080000FFFF70B586B000241C4892
:102320000094019402940394816941F01001816149
:10233000816901F010010491816941F020018161FE
:10234000816901F020010491816941F004018161FA
:10235000816901F004010491816941F00801816102
:102360008069012200F008000A4E550304902946B6
:102370003046FEF705F901200095CDE90104022061
:10238000039069463046FEF70BF806B070BD0000BA
:1023900000100240001001400D4810B50B490160CB
:1023A0000C49416000214FF480428160C0E9031272
:1023B00041618161C1610162FEF76CFA002803D0BE
:1023C000BDE81040FDF765BF10BD0000005400409F
:1023D00010000020A0860100104810B50E490160D1
:1023E0004FF48271416000218160C1604FF400723E
:1023F0000161C0E905122822C0E90721416281621A
:102400000A21C162FEF7DAFE002803D0BDE81040C1
:10241000FDF73FBF10BD0000003001406400002008
:1024200010B58AB0002407941C2168460894FDF773
:10243000CBFE17484FF0804101604721C0E90114ED
:1024400040F2E731C0E903148461FFF723F808B1D3
:10245000FDF71FFF079407A90D480894FEF75CFFDE
:1024600008B1FDF716FF602000904FF4FA70CDE937
:1024700001040022694606480494FEF7A5FF08B14E
:10248000FDF707FF0248FEF77BFF0AB010BD000012
:10249000BC0000200C4810B50A4901604FF4E1313E
:1024A0004160002181600C22C160C0E90412816199
:1024B000C161FFF767F9002803D0BDE81040FDF7C0
:1024C000E8BE10BD0038014004010020FEE7FEF721
:1024D00067FCFEE7704700000148FEF7FFBD000003
:1024E0006400002010B5406A0021C187C186FEF754
:1024F000F3FD10BD7047FEF7D7BA30B58FB0282175
:102500006846FDF761FE14210AA8FDF75DFE012172
:102510000804CDE900100024029402250491CDE9BD
:1025200007504FF4E01009906846FEF745FC08B1EB
:1025300072B6FEE70F20CDE90A054FF48060CDE9C1
:102540000C4002210AA80E94FEF748FB08B172B6AF
:10255000FEE7FEF7D9FB0FB030BD7047F0B502685B
:10256000194B1A4C1A4D4FF08047984205D0B8428B
:1025700003D0A04201D0A84203D122F070064A68DD
:102580003243984205D0B84203D0A04201D0A842BD
:1025900003D122F44074CA6822434C6922F08002BD
:1025A000224302608A68C2620A688262984201D14C
:1025B00009690163012141610169C90703D001690A
:1025C00021F001010161F0BD002C01400004004038
:1025D0000008004030B5036A026A22F0010202627C
:1025E0004268846924F073050C682C4323F00205CB
:1025F0008B682B430A4DA8420BD123F00805CB680A
:1026000022F440722B434D6923F0040315438A6979
:102610002A434260846149684163036230BD00001F
:10262000002C014030B5026A036A23F010030362F4
:10263000436884690D6824F4E64444EA05248D68FF
:1026400022F0200242EA05120B4DA8420ED1CD68BD
:1026500022F0800242EA05124D6923F4406343EA06
:1026600085038D6922F0400243EA8503436084615B
:1026700049688163026230BD002C014030B5036AB5
:10268000026A22F4807202624268C46923F4007311
:1026900024F073050C682C438D6843EA05230C4D28
:1026A000A8420ED1CD6823F4006343EA05234D69A7
:1026B00022F4405242EA05128D6923F4806342EA13
:1026C00005124260C4614968C163036230BD000005
:1026D000002C014030B5046A026A22F48052026282
:1026E0004268C3690D6823F4E64343EA05238D6815
:1026F00024F4005444EA0534064DA84204D14D693F
:1027000022F4804242EA85124260C3614968016452
:10271000046230BD002C014010B5406A0021C18523
:10272000C184FEF7F8FE10BD01680C3151E8002F9E
:1027300022F4907241E80023002BF5D10168143196
:1027400051E8002F22F0010241E80023002BF5D1CF
:10275000016B012909D101680C3151E8002F22F0E9
:10276000100241E80023002BF5D1202180F842100F
:1027700000210163704708B590F84210222901D06A
:10278000022008BD82684FF480539A4201D101694A
:1027900021B1816A9A421BD04AB10AE00268816A7B
:1027A0005268C2F308020A80816A891C08E0026943
:1027B00072B10268526802F07F020A70816A491C95
:1027C0008162C18D491E0904090CC18503D01BE03B
:1027D00002685268F1E70168CA6822F02002CA6004
:1027E0000168CA6822F48072CA6001684A6922F0EE
:1027F00001024A61202180F8421000214163026BEE
:10280000012A03D0FFF730F8002008BD01630168FA
:102810000C3151E8002F22F0100241E80023002B78
:10282000F5D101680A68D20602D50A6849680091A4
:10283000818DFEF76FFEE7E770B504460068016919
:10284000E26821F44051114301612169A068084305
:10285000616908432168CA6841F20C639A430243E4
:10286000CA6020684169A26921F440711143416145
:102870001E492068884202D1FEF75CFA01E0FEF7AB
:1028800049FA00EBC00101EB00126068642180008E
:10289000B2FBF0F3B3FBF1F36FF018067343B2FB36
:1028A000F0F5B2FBF0F605EB8305322303EB0515DB
:1028B000B5FBF1F5B6FBF1F605F0F00505EB0615F5
:1028C000B2FBF0F6B2FBF0F0B0FBF1F06FF01802E3
:1028D000504306EB800003EB0010B0FBF1F02168E1
:1028E00000F00F002844886070BD000000380140EF
:1028F0000EB505A2642307CA8DE807000B226946BE
:102900000448FEF7B2FF0EBD48656C6C6F204C4169
:10291000210D0A00040100202DE9F84398461746CE
:102920000D460446089E24E0701C22D0FDF72EFEC2
:10293000A0EB0800B0421AD8CEB12068C1684907A0
:1029400017D5802D15D0402D13D00168C943090734
:102950000FD401680025406800902046FFF7E4FE90
:102960000820606484F840500120BDE8F88303200B
:10297000FBE72068006835EA000004D00020B84278
:10298000D2D00020F1E70120F9E700000148FEF76E
:10299000C3BD000004010020FEE70907090E00285E
:1029A00004DB00F1E02080F80014704700F00F0015
:1029B00000F1E02080F8141D7047FEF77DF8FFF766
:1029C0009CFDFFF7A9FCFFF7E7FCFFF705FDFFF70C
:1029D00027FDFFF75FFDFFF78BFF0120FDF7CEFC22
:1029E000F9E7010202030405060708090A0B0C0DAA
:1029F0000E0F101000000000000000000102030490
:102A00000607080900000000010203042C2A000840
:102A10000000002010000000280100083C2A0008E7
:102A200010000020A0070000440100080100000081
:0C2A3000100000000000000000127A00FE
:04000005080000ED02
:00000001FF
